:060000000A128A11E82F2C
:100C76003F3406345B344F3466346D347D34073488
:100C86007F346F347E088A007F0882000A128A1138
:100C960045260A128A118000840A04087D06031973
:100CA6000034FF0A0319FE0A492EFD01FB1F5C2EC4
:100CB6005D2E642EFA09FB09FA0A0319FB0A0130B4
:100CC600FD00F91F672E682E6D2EF809F909F80A3E
:100CD6000319F90A780879040319722E732EA02EC7
:100CE6000130FC007F2E01300310F80DF90DFF3E98
:100CF600031D772E0130FC07F91F822E832E762ED8
:100D060079087B02031D892E78087A02031C8C2E33
:100D16008D2E932E7808FA027908031CFB03FB023A
:100D260001300310F90CF80CFF3E031D942E013020
:100D3600FC02031D9F2EA02E832E7D080319A42ED0
:100D4600A52EAA2EFA09FB09FA0A0319FB0A7B0843
:100D5600F9007A08F8000800F501F11FB32EB42E49
:100D6600BB2EF009F109F00A0319F10A0130F5006A
:100D7600F31FBE2EBF2EC62EF209F309F20A03197F
:100D8600F30A0130F506F601F7017008710403193C
:100D9600CD2ECE2E032F0130F400DA2E01300310B3
:100DA600F00DF10DFF3E031DD22E0130F407F11FA9
:100DB600DD2EDE2ED12E01300310F60DF70DFF3E8F
:100DC600031DDF2E71087302031DEB2E70087202DD
:100DD600031CEE2EEF2EF62E7008F2027108031C8D
:100DE600F303F302761401300310F10CF00CFF3E0E
:100DF600031DF72E0130F402031D022F032FDE2EF2
:100E060075080319072F082F0D2FF609F709F60A9B
:100E16000319F70A7708F1007608F0000800831630
:100E26000317880189018316031301087F3981009E
:100E3600FF3086008701880183120313870188012A
:100E46000310061C0314003003180130B20003100F
:100E5600861C0314003003180130B1000310061D70
:100E66000314003003180130B0003203031D3C2F79
:100E76003D2F542F2F08031D412F422F542F2C088E
:100E8600031D462F472F4E2F0130AA070318AB0A22
:100E96000030AB07542F0230AA070318AB0A003004
:100EA600AB073103031D582F592F702F2E08031D32
:100EB6005D2F5E2F702F2C08031D622F632F6A2F64
:100EC600FF30AA070318AB0AFF30AB07702FFE30BE
:100ED600AA070318AB0AFF30AB073003031D742FB4
:100EE600752F822F2D08031D792F7A2F822F2C081C
:100EF60003197E2F802F0130812F0030AC0032087D
:100F0600AF003108AE003008AD002B08803AFF0074
:100F160080307F02031D912F64302A02031C942F18
:100F2600952F9F2F831203132A089C3EAA002B0895
:100F36000318013EFF3EAB0083120313AB1FA42F21
:100F4600A52FAD2F2A08643EAA002B080318013EE0
:100F5600003EAB000A30F8000030F9002B08FB0019
:100F66002A08FA000A128A1158260A128A117808E3
:100F7600203E8400831300088312031387000A307F
:100F8600F8000030F9000A30F0000030F1002B08BC
:100F9600F3002A08F2000A128A11AF260A128A11F1
:100FA6007108FB007008FA000A128A1158260A1204
:100FB6008A117808203E84008313000883120313E5
:100FC6008800232F0A128A11002883132A30FD0075
:100FD6000630FE003B30FF00203084000A128A11E2
:100FE60049260A128A11AA01AB01AC01AD01AE0174
:0A0FF600AF0183010A128A11122FC5
:04400E00F12FFF3F50
:00000001FF
