:060000000A128A110C280F
:10000800FE00030EF0000A08F1000A128A112429E2
:100018000A128A110F28FB0183120313B601830108
:100028000A128A117D28003083120313B0000030B1
:10003800AF000030AE000030AD00270826042504CC
:10004800240403192828292874280130B1003728E6
:100058000130AC000310A40DA50DA60DA70DAC0B27
:100068002E280130B107A71F3A283B282C28013039
:10007800AC000310AD0DAE0DAF0DB00DAC0B3D28AF
:1000880027082B02031D522826082A02031D52287E
:1000980025082902031D522824082802031C552874
:1000A800562865282408A8022508031C250FA9023C
:1000B8002608031C260FAA022708031C270FAB02D9
:1000C8002D1401300310A70CA60CA50CA40CFF3EA0
:1000D800031D66280130B102031D732874283B28CC
:1000E8003008A7002F08A6002E08A5002D08A40098
:1000F80008008316031387018312031387010A126A
:100108008A116B210A128A110A128A1179210A129C
:100118008A1100300A128A1149210A128A117308B9
:1001280083120313B5007208B4008B130030A700C4
:100138000030A6000330A500FF30A4003408F20008
:100148003508F300F401F5010030F9000030F8003B
:100158000030F7001430F6000A128A11D8200A126B
:100168008A11750883120313AB007408AA00730878
:10017800A9007208A8000A128A1117200A128A1107
:10018800831203132408B6008B171A308312031343
:10019800B300F730B200B20BCF28B30BCF28D42866
:1001A8008D280A128A110C28003083120313A30029
:1001B8000030A2000030A1000030A000721CE52829
:1001C800E628FF28760883120313A007770803118F
:1001D8000318013E0319F128A10778080311031831
:1001E800013E0319F828A207790803110318013EF4
:1001F8000319FF28A3070130FA000310F60DF70DC5
:10020800F80DF90DFA0B012901300310F50CF40C67
:10021800F30CF20CFF3E031D0929750874047304DE
:100228007204031D18291929E228831203132308CD
:10023800F5002208F4002108F3002008F200080065
:100248000B1D2729282942298312031336087B020C
:10025800031C2F2933298312031307153629831208
:10026800031307110130FB0714307B02031C3D29DF
:100278003E293F29FB01F63081000B1171088A00E5
:10028800700E8300FE0E7E0E0900F5008330831287
:1002980003139F057508F40001300310F40DFF3EA9
:1002A800031D51290310740D9F040330F400F40B4F
:1002B8005B29831203139F149F18632964296029FB
:1002C8001E08F300831603131E08F200080001300D
:1002D80083160317880089010130831203139F00D6
:1002E8008030831603139F00080001308316031320
:1002F8008100F6308312031381008B168B170800D8
:04400E00F22FFF3F4F
:00000001FF
