:060000000A128A11EE2F26
:100C08003F3406345B344F3466346D347D340734F6
:100C18007F346F347E088A007F0882000A128A11A6
:100C28000E260A128A118000840A04087D06031918
:100C38000034FF0A0319FE0A122EFD01FB1F252EA0
:100C4800262E2D2EFA09FB09FA0A0319FB0A013090
:100C5800FD00F91F302E312E362EF809F909F80A51
:100C68000319F90A7808790403193B2E3C2E692EDA
:100C78000130FC00482E01300310F80DF90DFF3E3D
:100C8800031D402E0130FC07F91F4B2E4C2E3F2E22
:100C980079087B02031D522E78087A02031C552E10
:100CA800562E5C2E7808FA027908031CFB03FB0217
:100CB80001300310F90CF80CFF3E031D5D2E0130C6
:100CC800FC02031D682E692E4C2E7D0803196D2E1B
:100CD8006E2E732EFA09FB09FA0A0319FB0A7B0820
:100CE800F9007A08F8000800F501F11F7C2E7D2E26
:100CF800842EF009F109F00A0319F10A0130F50010
:100D0800F31F872E882E8F2EF209F309F20A031992
:100D1800F30A0130F506F601F701700871040319AA
:100D2800962E972ECC2E0130F400A32E01300310FE
:100D3800F00DF10DFF3E031D9B2E0130F407F11F4E
:100D4800A62EA72E9A2E01300310F60DF70DFF3EA2
:100D5800031DA82E71087302031DB42E70087202B9
:100D6800031CB72EB82EBF2E7008F2027108031CA0
:100D7800F303F302761401300310F10CF00CFF3E7C
:100D8800031DC02E0130F402031DCB2ECC2EA72E3E
:100D980075080319D02ED12ED62EF609F709F60AB2
:100DA8000319F70A7708F1007608F000080083169F
:100DB8000313880187018312031388018701AE0199
:100DC800AF010A30F8000030F9002F08FB002E08A8
:100DD800FA000A128A1121260A128A117908831246
:100DE8000313AD007808AC000A30F8000030F900B1
:100DF8000A30F0000030F1002C082E02F2002D0815
:100E0800031C2D0A2F02F3000A128A1178260A12EF
:100E18008A117108FB007008FA000A128A1121264B
:100E28000A128A11790883120313A9007808A80006
:100E38000A30F0000030F1002C082E02F2002D08D4
:100E4800031C2D0A2F02F3000A128A1178260A12AF
:100E58008A118312031328087002A6002908031CAC
:100E6800290A7102A7000A30F8000030F9000A3098
:100E7800F0000030F1002708F3002608F2000A12FB
:100E88008A1178260A128A117108FB007008FA0084
:100E98000A128A1121260A128A1179088312031369
:100EA800A3007808A200E830F0000330F1002F0812
:100EB800F3002E08F2000A128A1178260A128A1103
:100EC800710883120313A5007008A400AA01AB01DE
:100ED800F7308312031387002408303E84008313FD
:100EE80000088800033083120313A1009730A00084
:100EF800A00B7C2FA10B7C2FFB30831203138700E0
:100F08002208303E840083130008880003308312CF
:100F18000313A1009730A000A00B902FA10B902FD6
:100F2800FD308312031387002808303E84008313A2
:100F380000088800033083120313A1009730A00033
:100F4800A00BA42FA10BA42FFE308312031387003C
:100F58002C08303E84008313000888000330831275
:100F68000313A1009730A000A00BB82FA10BB82F36
:100F7800013083120313AA070318AB0A0030AB072A
:100F88002B08803AFF0080307F02031DCD2F3230BE
:100F98002A02031CD02FD12F6C2F1030F8002730D5
:100FA800F900831203132E08013EFA002F080318D4
:100FB800013E003EFB000A128A1121260A128A11FC
:100FC800790883120313AF007808AE00E52E0A12E1
:100FD8008A11002883133A30FD000630FE000430E1
:100FE800FF00303084000A128A1112260A128A1170
:080FF80083010A128A11DB2EAD
:04400E00F12FFF3F50
:00000001FF
