:060000000A128A110E280D
:10000800FE00030EF5000A08F6007F08F7000A1242
:100018008A1113290A128A11112883133530FD0019
:100028000130FE002630FF002B3084000A128A11AE
:1000380004210A128A1183010A128A117C28831268
:100048000313A501A31F29282A283128A209A309D7
:10005800A20A0319A30A0130A500A11F34283528D4
:100068003A28A009A109A00A0319A10A2008210415
:1000780003193F2840286D280130A4004C2801307E
:100088000310A00DA10DFF3E031D44280130A40755
:10009800A11F4F285028432821082302031D562852
:1000A80020082202031C59285A2860282008A20286
:1000B8002108031CA303A30201300310A10CA00C08
:1000C800FF3E031D61280130A402031D6C286D2822
:1000D800502825080319712872287728A209A3092E
:1000E800A20A0319A30A2308A1002208A0000800F5
:1000F8008316031788018901831603138801870172
:1001080001308600831203138801870183160313C5
:1001180001087F39810001138B100B168B1783128E
:100128000313A901AA0129082B3E840083130008A0
:100138008800063083120313A8001330A700AD30DF
:10014800A600A60BA528A70BA528A80BA5280A304A
:1001580083120313A0000030A1002908013EA20069
:100168002A080318013E003EA3000A128A11232020
:100178000A128A11831203132108AA002008A90071
:1001880097280A128A110E280130F3000030F40073
:100198008312031307140630F2001330F100AD3058
:1001A800F000F00BD528F10BD528F20BD528DC2868
:1001B8008312031307100630F2001330F100AD303C
:1001C800F000F00BE528F10BE528F20BE528EC2808
:1001D8000130F3070318F40A0030F4077408803A72
:1001E800FF0080307F02031DFB2804307302031CCC
:1001F800FE28FF28CC2808007E088A007F08820095
:100208000A128A1100210A128A118000840A04083D
:100218007D0603190034FF0A0319FE0A04298B1C02
:10022800162917291D290A128A11C8200A128A11AB
:100238008B107708FF0076088A00750E8300FE0E83
:100248007E0E09003F3406345B344F3466346D3417
:080258007D3407347F346F345C
:04400E00F12FFF3F50
:00000001FF
