:060000000A128A110C280F
:10000800FE00030EF0000A08F1000A128A11FB2C08
:100018000A128A110F280A128A111F250A128A1138
:10002800BB000A128A1120250A128A11BC000A1282
:100038008A1121250A128A11BD000A128A11222565
:100048000A128A11BE000A128A1123250A128A117D
:10005800BF00B601B701B801B901BA01FA01FB0145
:1000680083010A128A1138280A128A1111250A12E4
:100078008A1129308400831203133B0883138000FC
:10008800840A3C088000840A3D088000840A3E08EF
:100098008000840A3F0880002030840029088000FE
:1000A800840A2A088000840A2B088000840A2C0805
:1000B8008000840A2D0880000A128A11CA220A12B6
:1000C8008A110930F80000300A128A110F240A1226
:1000D8008A110130F80001300A128A110F240A121D
:1000E8008A11831603138801870101308600831261
:1000F8000313880187018316031301087F398100E0
:1001080001138B100B168B1783120313B401B5015F
:10011800B001B10100300A128A1165240A128A114D
:1001280001300A128A1165240A128A1100300A1253
:100138008A11BA240A128A11730883120313B300AE
:100148007208B20001300A128A11BA240A128A11FE
:10015800730883120313AF007208AE0001302F0238
:10016800F43003192E020318BA28BB28BE28B001A0
:10017800B101CB2802302F020D3003192E02031CC7
:10018800C628C728CB280130B0000030B1000130A4
:1001980033020030031932020318D328D428DD288B
:1001A800FF30B4070318B50AFF30B5070130FA006D
:1001B800202901303302003003193202031CE528DC
:1001C800E628F72801303302F43003193202031805
:1001D800EE28EF28F728FF30B4070318B50AFF30D8
:1001E800B507FA012029023033020D300319320213
:1001F800031CFF280029102903303302003003199B
:10020800320203180829092910290130B4070318F4
:10021800B50A0030B507F52803303302003003195A
:100228003202031C1829192920290130B4070318A0
:10023800B50A0030B507DA283508803AFF00803063
:100248007F02031D292910303402031C2C292D2973
:10025800312983120313B401B50183120313B51FA7
:10026800362937293B290F30B4000030B500300853
:100278003104031D4029412962293408803EA60023
:1002880035080318013E003EA7000430A800270DDA
:10029800A70CA60CA80B4B2926080F390A128A119D
:1002A80065240A128A11831203133408803E0F3919
:1002B8000A128A1165240A128A11D82930033104D6
:1002C800031D6729682989293408C03EA600350816
:1002D8000318013E003EA7000430A800270DA70C14
:1002E800A60CA80B722926080F390A128A11652450
:1002F8000A128A11831203133408C03E0F390A12F6
:100308008A1165240A128A11D8290230300631046C
:10031800031D8F299029B1293408943EA600350879
:100328000318013E003EA7000430A800270DA70CC3
:10033800A60CA80B9A2926080F390A128A116524D7
:100348000A128A11831203133408943E0F390A12D1
:100358008A1165240A128A11D8290330300631041B
:10036800031DB729B829D8293408D43EA600350872
:100378000318013E003EA7000430A800270DA70C73
:10038800A60CA80BC22926080F390A128A1165245F
:100398000A128A11831203133408D43E0F390A1241
:1003A8008A1165240A128A117B080319DC29DD29C0
:1003B800E42900300A128A117B230A128A11EA29D9
:1003C80001300A128A117B230A128A117A0803194A
:1003D800EE29EF29FE29033083120313A8008A307F
:1003E800A7005530A600A60BF729A70BF729A80BDD
:1003F800F7298E28063083120313A8001330A700AC
:10040800AD30A600A60B062AA70B062AA80B062ABB
:100418008E280A128A110C28F400741C142A152A32
:100428002A2A83120313360884008317371C831380
:100438000130F20039080739013E242A0310F20D71
:10044800FF3E031D222A720880043F2A83120313E9
:10045800360884008317371C83130130F2003908EB
:100468000739013E392A0310F20DFF3E031D372AD2
:100478007208FF3A8005F41C422A432A592A360892
:1004880084008317371C83130130F200390CF30002
:10049800F30C730C0739013E532A0310F20DFF3E8B
:1004A800031D512A720880046F2A360884008317B6
:1004B800371C83130130F200390CF300F30C730C72
:1004C8000739013E692A0310F20DFF3E031D672A12
:1004D8007208FF3A8005741D722A732A862A360824
:1004E80084008317371C83130130F2003A08073958
:1004F800013E802A0310F20DFF3E031D7E2A72087A
:100508008004992A360884008317371C8313013026
:10051800F2003A080739013E932A0310F20DFF3E14
:10052800031D912A7208FF3A8005F41D9C2A9D2A12
:10053800B32A360884008317371C83130130F2006E
:100548003A0CF300F30C730C0739013EAD2A031083
:10055800F20DFF3E031DAB2A72088004C92A360833
:1005680084008317371C83130130F2003A0CF30020
:10057800F30C730C0739013EC32A0310F20DFF3E3A
:10058800031DC12A7208FF3A80050800363084002E
:1005980083120313200883138000840A2108800033
:1005A800840A22088000840A23088000840A240818
:1005B800800000303706031DE32A05303606031D88
:1005C800E62AE72AEB2A831603138501062B003057
:1005D8003706031DF12A06303606031DF42AF52ACC
:1005E800F92A831603138601062B00303706031DEC
:1005F800FF2A07303606031D022B032B7A2B83169E
:10060800031387013430F900F130F800F80B0A2B96
:10061800F90B0A2B0F2B03300A128A1165240A12D0
:100628008A110D30F900FB30F800F80B192BF90B83
:10063800192B1E2B03300A128A1165240A128A11FB
:100648002A30F9008D30F800F80B282BF90B282BED
:100658002D2B03300A128A1165240A128A110230DE
:100668000A128A1165240A128A1102300A128A11A2
:1006780065240A128A1108300A128A1165240A129E
:100688008A1100300A128A1165240A128A1106306A
:100698000A128A1165240A128A1108308312031378
:1006A800A50025152508F80004300310F80CFF3EB6
:1006B800031D592B78080F390A128A1165240A126A
:1006C8008A118312031325080F390A128A11652427
:1006D8000A128A1100300A128A1165240A128A1134
:1006E80001300A128A1165240A128A110800F700DB
:1006F80083120313360884008317371C83130130D1
:10070800F50038080739013E8B2B0310F50DFF3E25
:10071800031D892B750880047708F5000430031041
:10072800F50CFF3E031D932B75080F390A128A1129
:1007380010220A128A1183120313360884008317C1
:10074800371C83130130F500380CF600F60C760CD4
:100758000739013EB12B0310F50DFF3E031DAF2BEA
:10076800750880041A30F500F50BB82B00008312C9
:100778000313360884008317371C83130130F500F0
:10078800380CF600F60C760C0739013ECD2B031019
:10079800F50DFF3E031DCB2B7508FF3A8005770842
:1007A8000F390A128A1110220A128A1183120313AE
:1007B800360884008317371C83130130F500380C82
:1007C800F600F60C760C0739013EEC2B0310F50DFC
:1007D800FF3E031DEA2B750880041A30F500F50B5F
:1007E800F32B000083120313360884008317371C89
:1007F80083130130F500380CF600F60C760C073937
:10080800013E082C0310F50DFF3E031D062C75084C
:10081800FF3A8005080083120313A2002208A000F3
:1008280002300310A00DFF3E031D152C0310200DF0
:10083800403EA10004300310A10CFF3E031D1F2CF5
:1008480021080F390A128A1165240A128A118312A3
:1008580003132208A00002300310A00DFF3E031D61
:10086800302C0310200D403E0F390A128A116524DE
:100878000A128A1183120313A3012308780784003C
:100888000A128A11E5240A128A110A128A117B2394
:100898000A128A11013083120313A30708302302B6
:1008A800031C572C582C412C08300A128A11652435
:1008B8000A128A1100300A128A1165240A128A1152
:1008C8000800F70083120313360884008317371CC7
:1008D80083130130F50038080739013E752C0310E1
:1008E800F50DFF3E031D732C7508FF3A8005770848
:1008F8000A128A1110220A128A1183120313360867
:1009080084008317371C83130130F500380CF60078
:10091800F60C760C0739013E932C0310F50DFF3EBB
:10092800031D912C750880040B30F6006230F50029
:10093800F50B9C2CF60B9C2C000083120313360835
:1009480084008317371C83130130F500380CF60038
:10095800F60C760C0739013EB32C0310F50DFF3E5B
:10096800031DB12C7508FF3A80050800F600033016
:10097800F400F40BBD2C8330831203139F05760813
:10098800F40001300310F40DFF3E031DC62C0310C4
:10099800740D9F040630F5003030F400F40BD22CAF
:1009A800F50BD22C0000831203139F149F18DD2C23
:1009B800DE2CDA2C1E08F300831603131E08F2003F
:1009C800080004308A000408840A820700340034CE
:1009D8000A340A34003411340E340034003400343C
:1009E8000A340A3400340E341134003400348B1CB9
:1009F800FE2CFF2C0A2D8B137B080319042D062DC2
:100A08000130072D0030FB008B178B1071088A000E
:100A1800700E8300FE0E7E0E090003308316031746
:100A2800880089010130831203139F0081308316E7
:100A380003139F000800073400341A342C343E3462
:04400E00F12FFF3F50
:00000001FF
