:100000000A128A11D02FFF1B0D2883137F18831724
:100010000008840A0319FF0A080000308A00040857
:10002000840A8207003456346F346C34743461347B
:100030006A346534203431343A3420340034563450
:100040006F346C34743461346A346534203432343F
:100050003A3420340034253475342E342534753444
:0200600000346A
:1000D8000800073400341A342C343E34640080019C
:1000E800840A0406031900340406732803308316AF
:1000F8000317880089010130831203139F008130A0
:10010800831603139F000800323083120313B700CD
:100118003008B8000030B900BA01BB01C101C20102
:100128003830AC000030AD003108AE003730AF00D9
:100138000A128A11AB200A128A11831203133A0891
:100148003007B60036088400831380010800831244
:1001580003132E08FD00BF28831203132C08A000E8
:100168002D08A1007D30A2002F08A3000A128A11D1
:100178007A250A128A117D0884000A128A110D2034
:100188000A128A11003A031DCA28CB28B028831204
:100198000313AC01AD010800F4000330F200F20BC8
:1001A800D3288330831203139F057408F2000130AB
:1001B8000310F20DFF3E031DDC280310720D9F048F
:1001C8000630F3003030F200F20BE828F30BE82891
:1001D8000000831203139F149F18F328F428F028B3
:1001E8001E08F100831603131E08F00008007008AB
:1001F80071040319002901292E290130F4000D2961
:1002080001300310F00DF10DFF3E031D05290130EB
:10021800F407F11F10291129042971087302031D1D
:10022800172970087202031C1A291B292129700832
:10023800F2027108031CF303F30201300310F10CFE
:10024800F00CFF3E031D22290130F402031D2D2965
:100258002E2911297308F1007208F0000800FB012B
:10026800FC0158297B087607F9007708F80003187D
:10027800F80AFB1F4029F8037808FA007A08831265
:100288000313FF00790884000A128A1103200A1256
:100298008A110A128A1152220A128A110130FB07A6
:1002A8000318FC0A0030FC077B087607F90077087A
:1002B800F8000318F80AFB1F6229F8037808FA0007
:1002C8007A0883120313FF00790884000A128A113E
:1002D80003200A128A11003A031D7329742936294A
:1002E8000800F401F5017008710403197C297D29BF
:1002F800B2290130F600892901300310F00DF10D03
:10030800FF3E031D81290130F607F11F8C298D2935
:10031800802901300310F40DF50DFF3E031D8E29D1
:1003280071087302031D9A2970087202031C9D2923
:100338009E29A5297008F2027108031CF303F30231
:10034800741401300310F10CF00CFF3E031DA629B4
:100358000130F602031DB129B2298D297508F10073
:100368007408F00008000030FC000030FB0000308A
:10037800FA000030F900701CC229C329DA29740870
:10038800F907750803110318013E0319CC29FA0768
:10039800760803110318013E0319D329FB077708D0
:1003A80003110318013E0319DA29FC070130F8008C
:1003B8000310F40DF50DF60DF70DF80BDC290130DF
:1003C8000310F30CF20CF10CF00CFF3E031DE429B2
:1003D8007308720471047004031DF329F429BF29FA
:1003E8007C08F3007B08F2007A08F1007908F00035
:1003F8000800F50083160313400884008317411C86
:1004080083130130F30042080739013E0D2A031017
:10041800F30DFF3E031D0B2A7308FF3A800575088C
:100428000A128A11C0240A128A118316031340087B
:1004380084008317411C83130130F300420CF4003D
:10044800F40C740C0739013E2B2A0310F30DFF3E00
:10045800031D292A730880040B30F4006230F3006E
:10046800F30B342AF40B342A0000831603134008D4
:1004780084008317411C83130130F300420CF400FD
:10048800F40C740C0739013E4B2A0310F30DFF3EA0
:10049800031D492A7308FF3A80050800F5008316F2
:1004A8000313400884008317411C83130130F300B1
:1004B80042080739013E622A0310F30DFF3E031D6F
:1004C800602A730880047508F30004300310F30CE5
:1004D800FF3E031D6A2A73080F390A128A11C024C5
:1004E8000A128A1183160313400884008317411CDB
:1004F80083130130F300420CF400F40C740C073938
:10050800013E882A0310F30DFF3E031D862A730857
:1005180080041A30F300F30B8F2A000083160313AC
:10052800400884008317411C83130130F300420CF8
:10053800F400F40C740C0739013EA42A0310F30DDF
:10054800FF3E031DA22A7308FF3A800575080F397C
:100558000A128A11C0240A128A118316031340084A
:1005680084008317411C83130130F300420CF4000C
:10057800F40C740C0739013EC32A0310F30DFF3E37
:10058800031DC12A730880041A30F300F30BCA2A2A
:10059800000083160313400884008317411C83134B
:1005A8000130F300420CF400F40C740C0739013EDE
:1005B800DF2A0310F30DFF3E031DDD2A7308FF3AFF
:1005C8008005080083120313A901A31FEC2AED2A52
:1005D800FA2AA009A109A209A309A00A0319A10AD4
:1005E8000319A20A0319A30A0130A900A71FFD2AAB
:1005F800FE2A0B2BA409A509A609A709A40A031911
:10060800A50A0319A60A0319A70A0130A90600308A
:10061800AD000030AC000030AB000030AA00230869
:1006280022042104200403191A2B1B2B662B0130EA
:10063800A800292B0130FD000310A00DA10DA20D6B
:10064800A30DFD0B202B0130A807A31F2C2B2D2B4E
:100658001E2B0130FD000310AA0DAB0DAC0DAD0D26
:10066800FD0B2F2B23082702031D442B22082602EB
:10067800031D442B21082502031D442B20082402B6
:10068800031C472B482B572B2008A4022108031CC6
:10069800210FA5022208031C220FA6022308031C0F
:1006A800230FA7022A1401300310A30CA20CA10CDB
:1006B800A00CFF3E031D582B0130A802031D652B1B
:1006C800662B2D2B290803196A2B6B2B762BAA096D
:1006D800AB09AC09AD09AA0A0319AB0A0319AC0A9C
:1006E8000319AD0A2D08A3002C08A2002B08A100AD
:1006F8002A08A0000800720873040319842B852BAC
:100708008B2B72087304031D8A2B8B2B922B70087A
:100718000A128A116C200A128A11182C7208093ED2
:10072800F40073080318013E003EF50074088400C5
:100738008317751C83130008F600840A0008F70065
:10074800760877040319A92BAA2BDC2B7208093E1B
:10075800F40073080318013E003EF5007408840095
:100768008317751C83130008F600840A0008F70035
:100778007208023EF80073080318013E003EF900B3
:10078800780884008317791C83130008FA00840A08
:100798000008FB007B08803AFC007708803A7C025E
:1007A800031DD82B76087A020318DB2BDC2B182CB8
:1007B800720884008317731C83130008F400840AEA
:1007C8000008F5007208023EF60073080318013E9F
:1007D800003EF700760884008317771C831300080F
:1007E8007407F9007508F8000318F80A801FFD2B34
:1007F800F8037808FA007908840083177A1C8313B1
:10080800700880007208023EF40073080318013E65
:10081800003EF500740884008317751C83130130AB
:100828008007840A0318800A0800C030840076080C
:1008380083138000840A77088000840A780880007F
:10084800840A79088000840A7A08800000308316B8
:1008580003134106031D322C05304006031D352CB9
:10086800362C382C85014F2C00304106031D3E2CB8
:1008780006304006031D412C422C442C86014F2C87
:1008880000304106031D4A2C07304006031D4D2C3D
:100898004E2CBF2C87013430FC00F130FB00FB0BE1
:1008A800532CFC0B532C582C03300A128A11FD21AF
:1008B8000A128A110D30FC00FB30FB00FB0B622C86
:1008C800FC0B622C672C03300A128A11FD210A12D4
:1008D8008A112A30FC008D30FB00FB0B712CFC0BBD
:1008E800712C762C03300A128A11FD210A128A1102
:1008F80002300A128A11FD210A128A1102300A12E4
:100908008A11FD210A128A1108300A128A11FD2162
:100918000A128A1100300A128A11FD210A128A115C
:1009280006300A128A11FD210A128A110830FD00C8
:100938007D157D08FB0004300310FB0CFF3E031DF2
:10094800A02C7B080F390A128A11FD210A128A117C
:100958007D080F390A128A11FD210A128A11003006
:100968000A128A11FD210A128A1101300A128A110B
:10097800FD210A128A110800F200721CC42CC52C31
:10098800DA2C83160313400884008317411C831351
:100998000130F00043080739013ED42C0310F00D54
:1009A800FF3E031DD22C70088004EF2C831603131E
:1009B800400884008317411C83130130F00043086A
:1009C8000739013EE92C0310F00DFF3E031DE72C0B
:1009D8007008FF3A8005F21CF22CF32C092D400810
:1009E80084008317411C83130130F000430CF1008D
:1009F800F10C710C0739013E032D0310F00DFF3E79
:100A0800031D012D700880041F2D400884008317E2
:100A1800411C83130130F000430CF100F10C710C00
:100A28000739013E192D0310F00DFF3E031D172D48
:100A38007008FF3A8005721D222D232D362D40089F
:100A480084008317411C83130130F00044080739E0
:100A5800013E302D0310F00DFF3E031D2E2D7008B2
:100A68008004492D400884008317411C83130130FA
:100A7800F00044080739013E432D0310F00DFF3EF6
:100A8800031D412D7008FF3A8005F21D4C2D4D2D98
:100A9800632D400884008317411C83130130F00044
:100AA800440CF100F10C710C0739013E5D2D031067
:100AB800F00DFF3E031D5B2D70088004792D400862
:100AC80084008317411C83130130F000440CF100AB
:100AD800F10C710C0739013E732D0310F00DFF3E28
:100AE800031D712D7008FF3A800508008312031357
:100AF80022088400000884000A128A110D200A12B4
:100B08008A11253A031D892D8A2D2C2E220884004E
:100B18000130800783160313C501C6010030831214
:100B28000313EF00FF3083160313C700FF30C8001C
:100B380083120313220884000008AA002A088400EC
:100B48000A128A110D200A128A11753A031DAD2D59
:100B5800AE2D252E2308840083130008A40002303C
:100B68008007240884000008A600840A0008A7005B
:100B7800220884002A08013E80001A2E2030AB008B
:100B88000130AB022B08A03E84000A30F000003090
:100B9800F1002708F3002608F2000A128A11FB2048
:100BA8000A128A117008303E831380000A30F00060
:100BB8000030F100831203132708F3002608F2001F
:100BC8000A128A1175210A128A11710883120313F5
:100BD800A7007008A600260827040319F42DF52D90
:100BE800132E2B08031DF92DFA2DC42D132E2B08B7
:100BF800A03E840083130008A400A5012408F00087
:100C08002508F1002008F2002108F3000A128A11D1
:100C18007F230A128A11013083120313AB07203095
:100C28002B06031D182E192EFB2D452E2A0884008D
:100C38000A128A110D200A128A11753A0319C22D57
:100C4800252E831203132208840001308007452EC5
:100C580022088400000884000A128A110D200A1252
:100C68008A11A400A5012408F0002508F100200835
:100C7800F2002108F3000A128A117F230A128A114E
:100C8800252E08000A128A117A200A128A115A306F
:100C9800840083160313490883138000840A4A08D2
:100CA8008000840A4B088000840A4C088000840A6B
:100CB8004D08800076308400831203135A088000A0
:100CC800840A5B088000840A5C088000840A5D0846
:100CD8008000840A5E0880000A128A1119240A1208
:100CE8008A1100300A128A11FD210A128A11013074
:100CF8000A128A11FD210A128A1108300A128A1171
:100D0800FD210A128A1100300A128A11FD210A12E5
:100D18008A110130F6008030F7000A128A11332157
:100D28000A128A110C300A128A11FD210A128A113C
:100D380000300A128A11FD210A128A110D30F600BC
:100D48008030F7000A128A1133210A128A11003002
:100D58000A128A11D0200A128A1171088312031309
:100D6800E0007008DF0001300A128A11D0200A1250
:100D78008A11710883120313E2007008E100003041
:100D8800A3000030A2000330A100FF30A0005F08DC
:100D9800F0006008F100F201F3010030F7000030C4
:100DA800F600C330F5005030F4000A128A11B7215A
:100DB8000A128A11730883120313A7007208A60087
:100DC8007108A5007008A4000A128A11E6220A1206
:100DD8008A11831203132108EC002008EB0000306D
:100DE800A3000030A2000330A100FF30A00061087A
:100DF800F0006208F100F201F3010030F700003062
:100E0800F600C330F5005030F4000A128A11B721F9
:100E18000A128A11730883120313A7007208A60026
:100E28007108A5007008A4000A128A11E6220A12A5
:100E38008A11831203132108EE002008ED001030F8
:100E4800F0002730F1006C08F3006B08F2000A127A
:100E58008A1175210A128A11710883120313E4009A
:100E68007008E3001030F0002730F1006C08F30040
:100E78006B08F2000A128A11FB200A128A11710803
:100E880083120313E6007008E5001030F0002730E5
:100E9800F1006E08F3006D08F2000A128A1175213C
:100EA8000A128A11710883120313E8007008E70018
:100EB8001030F0002730F1006E08F3006D08F200E2
:100EC8000A128A11FB200A128A117108831203136D
:100ED800EA007008E9004630B0001930B100640833
:100EE800B3006308B2006608B5006508B4000A12CA
:100EF8008A1188200A128A1108300A128A11FD21E3
:100F08000A128A110B300A128A11FD210A128A115B
:100F18004630F6000030F7000A128A1133210A120F
:100F28008A11503083120313B0001930B1006808D9
:100F3800B3006708B2006A08B5006908B4000A126D
:100F48008A1188200A128A110C300A128A11FD218E
:100F58000A128A110B300A128A11FD210A128A110B
:100F68005030F6000030F7000A128A1133210A12B5
:100F78008A11023083120313C5000430C400B9304B
:100F8800C300C30BC52FC40BC52FC50BC52FCC2F52
:100F9800752E0A128A110028831603130A128A1161
:100FA8006D200A128A11C9000A128A116E200A12CB
:100FB8008A11CA000A128A116F200A128A11CB00FC
:100FC8000A128A1170200A128A11CC000A128A1198
:100FD80071200A128A11CD008313A0308400C93011
:100FE8000A128A1172200A128A1183120313EF015E
:080FF80083010A128A11462E42
:04400E00F12FFF3F50
:00000001FF
