:060000000A128A11FC2F18
:100E90008316031388018312031388013F308312E2
:100EA000031388000630F2001330F100AD30F0007B
:100EB000F00B582FF10B582FF20B582F5F2F0630E5
:100EC0008312031388000630F2001330F100AD30B6
:100ED000F000F00B692FF10B692FF20B692F702FC7
:100EE0005B308312031388000630F2001330F100E8
:100EF000AD30F000F00B7A2FF10B7A2FF20B7A2F36
:100F0000812F4F308312031388000630F200133014
:100F1000F100AD30F000F00B8B2FF10B8B2FF20BAB
:100F20008B2F922F66308312031388000630F20055
:100F30001330F100AD30F000F00B9C2FF10B9C2F23
:100F4000F20B9C2FA32F6D30831203138800063001
:100F5000F2001330F100AD30F000F00BAD2FF10BCB
:100F6000AD2FF20BAD2FB42F7D3083120313880009
:100F70000630F2001330F100AD30F000F00BBE2F60
:100F8000F10BBE2FF20BBE2FC52F073083120313B8
:100F900088000630F2001330F100AD30F000F00BA5
:100FA000CF2FF10BCF2FF20BCF2FD62F7F30831205
:100FB000031388000630F2001330F100AD30F0006A
:100FC000F00BE02FF10BE02FF20BE02FE72F6F304B
:100FD0008312031388000630F2001330F100AD30A5
:100FE000F000F00BF12FF10BF12FF20BF12FF82F96
:100FF0004E2F0A128A11002883010A128A11482FE3
:04400E00F12FFF3F50
:00000001FF
