:060000000A128A11FC2F18
:100F3A00F000831203130C1EA32FA42F9E2F7008F8
:100F4A0099000800831603131812181533309900F4
:100F5A0083120313981783160313981607130800AE
:100F6A0083160317880189018316031306141514BF
:100F7A0081130A128A11A7270A128A110130F30073
:100F8A008312031306080139F4007408730603195F
:100F9A00CF2FD02FC52F3430F200F130F100F10BF2
:100FAA00D42FF20BD42FD92F831203130608013939
:100FBA00F400740873060319E32FE42FC52F74088D
:100FCA00031DE82FE92FF02F31300A128A119D27CD
:100FDA000A128A11F62F30300A128A119D270A1234
:100FEA008A117408F300C52F0A128A110028830196
:060FFA000A128A11B52F56
:04400E00F22FFF3F4F
:00000001FF
