:060000000A128A11FC2F18
:100F680083160313181218153330990083120313CC
:100F7800981718168316031387170800831203138C
:100F8800981CC72FC82FCA2F181218168C1ECD2FC1
:100F9800CE2FCA2F1A080800831603178801890163
:100FA8008316031308108312031308100A128A11F8
:100FB800B4270A128A110A128A11C2270A128A1140
:100FC800F00031307006031DEA2FEB2FEF2F83124C
:100FD80003130814DF2F30307006031DF42FF52F8C
:100FE800DF2F831203130810DF2F0A128A1100283B
:080FF80083010A128A11D02FB7
:04400E00F22FFF3F4F
:00000001FF
