:060000000A128A110C280F
:10000800FE00030EF0000A08F1000A128A11AD2E54
:100018000A128A110F28831603130A128A11AC27B1
:100028000A128A11D9000A128A11AD270A128A11F6
:10003800DA000A128A11AE270A128A11DB000A12A4
:100048008A11AF270A128A11DC000A128A11B02716
:100058000A128A11DD008313A0308400D0300A12FE
:100068008A11A4270A128A1183120313E101E201FB
:10007800E301E401E501E601E701FB0183010A125E
:100088008A1146280A128A1199270A128A11D03031
:10009800840083160313590883138000840A5A08BE
:1000A8008000840A5B088000840A5C088000840A57
:1000B8005D0880002030840050088000840A5108C0
:1000C8008000840A52088000840A53088000840A49
:1000D800540880000A128A1187220A128A1183168C
:1000E8000313880183120313880100300A128A114E
:1000F80045250A128A1101300A128A1145250A1269
:100108008A1108300A128A1145250A128A1100300C
:100118000A128A1145250A128A110B30F80080301C
:10012800F9000A128A11ED250A128A110C300A12F6
:100138008A1145250A128A1100300A128A114525AA
:100148000A128A111430F8008030F9000A128A1154
:10015800ED250A128A110C300A128A1145250A1255
:100168008A1100300A128A1145250A128A113C3078
:10017800F2000030F300831203136708F5006608E5
:10018800F4000A128A1133260A128A117308831698
:100198000313D6007208D5003C30F2000030F3009B
:1001A800831203136708F5006608F4000A128A111F
:1001B80075260A128A11730883160313D800720869
:1001C800D700C63083120313CE000130CF00831648
:1001D8000313560883120313D1008316031355081B
:1001E80083120313D00083160313580883120313D2
:1001F800D30083160313570883120313D2000A127D
:100208008A1153270A128A11C630F8000030F90003
:100218000A128A11ED250A128A11AF280A128A11C8
:100228000C28F400741C19291A292F298312031386
:10023800610884008317621C83130130F20064088C
:100248000739013E29290310F20DFF3E031D272916
:1002580072088004442983120313610884008317F9
:10026800621C83130130F20064080739013E3E29FD
:100278000310F20DFF3E031D3C297208FF3A80056A
:10028800F41C472948295E29610884008317621CE9
:1002980083130130F200640CF300F30C730C07397C
:1002A800013E58290310F20DFF3E031D562972081E
:1002B80080047429610884008317621C8313013049
:1002C800F200640CF300F30C730C0739013E6E293D
:1002D8000310F20DFF3E031D6C297208FF3A8005DA
:1002E800741D772978298B29610884008317621C7B
:1002F80083130130F20065080739013E8529031090
:10030800F20DFF3E031D8329720880049E296108AF
:1003180084008317621C83130130F20065080739D3
:10032800013E98290310F20DFF3E031D962972081D
:10033800FF3A8005F41DA129A229B8296108840083
:100348008317621C83130130F200650CF300F30C71
:10035800730C0739013EB2290310F20DFF3E031D4D
:10036800B02972088004CE29610884008317621CB2
:1003780083130130F200650CF300F30C730C07399A
:10038800013EC8290310F20DFF3E031DC62972085D
:10039800FF3A80050800831203133F088400831383
:1003A800000884000A128A110F270A128A11253AB6
:1003B800031DDF29E0296D2A3F08840001308007EA
:1003C80083160313A001A1010030FB00FF30A20037
:1003D800FF30A30083120313C701082AFB143F0848
:1003E800840001308007082A0130C700082A3F0826
:1003F8008400000884000A128A110F270A128A1141
:10040800303A0319F229F829470803190C2A0D2A4A
:10041800FB293F08F8004008F9000A128A11EE2467
:100428000A128A11790883160313A1007808A0001C
:10043800A11F1F2A202A262A7B14A009A109A00A85
:100448000319A10A831203133F08840083130008C9
:10045800C800480884000A128A110F270A128A1154
:10046800753A031D382A392A652A4008840000088D
:10047800C10002308007410884000008C300840AD4
:100488000008C4003F0884004808013E80005A2A3A
:100498003D08B4003E08B5004408B7004308B6005C
:1004A8000A128A1168240A128A11862A48088400C6
:1004B8000A128A110F270A128A11753A03194C2A4F
:1004C800652A831203133F088400013083138007D1
:1004D800862A3F088400000884000A128A110F2720
:1004E8000A128A11C100C2014108F2004208F30051
:1004F8003D08F4003E08F5000A128A1134230A1256
:100508008A11652A080061308400831203132008C9
:1005180083138000840A21088000840A220880004E
:10052800840A23088000840A2408800000306206B8
:10053800031DA02A05306106031DA32AA42AA82AA0
:10054800831603138501C32A00306206031DAE2AF1
:1005580006306106031DB12AB22AB62A8316031390
:100568008601C32A00306206031DBC2A07306106D3
:10057800031DBF2AC02A332B831603138701343087
:10058800F900F130F800F80BC72AF90BC72ACC2A72
:1005980003300A128A1145250A128A110D30F90012
:1005A800FB30F800F80BD62AF90BD62ADB2A0330E1
:1005B8000A128A1145250A128A112A30F9008D304B
:1005C800F800F80BE52AF90BE52AEA2A03300A12A3
:1005D8008A1145250A128A1102300A128A11452504
:1005E8000A128A1102300A128A1145250A128A1142
:1005F80008300A128A1145250A128A1100300A1297
:100608008A1145250A128A1106300A128A114525CF
:100618000A128A110830FA007A157A08F8000430AC
:100628000310F80CFF3E031D142B78080F390A122B
:100638008A1145250A128A117A080F390A128A1175
:1006480045250A128A1100300A128A1145250A1214
:100658008A1101300A128A1145250A128A110800E6
:10066800740875040319392B3A2B402B7408750448
:10067800031D3F2B402B472B72080A128A11B12702
:100688000A128A11D32B7408093E83120313A0009F
:1006980075080318013E003EA10020088400831756
:1006A800211C83130008A200840A0008A300220862
:1006B80023040319602B612B932B7408093EA000B7
:1006C80075080318013E003EA10020088400831726
:1006D800211C83130008A200840A0008A3007408E0
:1006E800023EA40075080318013E003EA500240838
:1006F80084008317251C83130008A600840A0008B9
:10070800A7002708803AA8002308803A2802031D7A
:100718008F2B220826020318922B932BD32B7408B5
:1007280084008317751C8313000883120313A00029
:10073800840A0008A1007408023EA2007508031884
:10074800013E003EA300220884008317231C831364
:1007580000082007A5002108A4000318A40A801F88
:10076800B62BA403831203132408A60025088400CB
:100778008317261C8313720880007408023EA000A9
:1007880075080318013E003EA10020088400831765
:10079800211C831301308007840A0318800A08008B
:1007A800F70083120313610884008317621C831304
:1007B8000130F50063080739013EE42B0310F50DFD
:1007C800FF3E031DE22B750880047708F50004300E
:1007D8000310F50CFF3E031DEC2B75080F390A12A8
:1007E8008A1115210A128A118312031361088400E1
:1007F8008317621C83130130F500630CF600F60CB6
:10080800760C0739013E0A2C0310F50DFF3E031D37
:10081800082C750880041A30F500F50B112C00001F
:1008280083120313610884008317621C8313013049
:10083800F500630CF600F60C760C0739013E262C01
:100848000310F50DFF3E031D242C7508FF3A8005A3
:1008580077080F390A128A1115210A128A11831290
:100868000313610884008317621C83130130F500A9
:10087800630CF600F60C760C0739013E452C031084
:10088800F50DFF3E031D432C750880041A30F50052
:10089800F50B4C2C000083120313610884008317A6
:1008A800621C83130130F500630CF600F60C760C1D
:1008B8000739013E612C0310F50DFF3E031D5F2C27
:1008C8007508FF3A80050800013083120313B80049
:1008D80083160313210883120313BA008316031324
:1008E800200883120313B9001F30BB000030BC007E
:1008F80083160313C501B82CFF3083120313BB07FB
:100908000318BC0AFF30BC073B08A63E84000A3027
:10091800F2000030F3003708F5003608F4000A1238
:100928008A1175260A128A117208303E83138000D4
:1009380083120313B801FF30B9070318BA0AFF304E
:10094800BA070A30F2000030F3003708F50036081D
:10095800F4000A128A1133260A128A1173088312C4
:100968000313B7007208B60083123B083C0403194E
:10097800BE2CBF2CDB2C36083704031DC42CC52C19
:10098800802C3808031DC92CCA2C802C3A08803AC0
:10099800FF0080307F02031DD32C01303902031C75
:1009A800D62CD72CDB2CFB18DA2CDB2C802C8312D2
:1009B80003133408AC003508AD003B08A63EAE0072
:1009C8003A08B0003908AF000A128A119A250A12AB
:1009D8008A11080083120313A101A2017808840078
:1009E8008313000884000A128A110F270A128A1139
:1009F8002A3A031D002D012D2F2D7808840001307F
:100A08008007790884000008FA00023080077A0815
:100A180084000008A100840A0008A200402D2208D2
:100A2800F3002108F2000A30F4000030F5000A1241
:100A38008A112E270A128A118312031320087207BB
:100A4800A1000030031801307307A2007808840061
:100A580001308313800778088400000884000A1294
:100A68008A110F270A128A11D03EA0000A302002EC
:100A7800031C3F2D402D132D2208F9002108F800F2
:100A88000800F70083120313610884008317621CAF
:100A980083130130F50063080739013E552D031013
:100AA800F50DFF3E031D532D7508FF3A80057708A5
:100AB8000A128A1115210A128A1183120313610876
:100AC80084008317621C83130130F500630CF60061
:100AD800F60C760C0739013E732D0310F50DFF3E19
:100AE800031D712D750880040B30F6006230F50087
:100AF800F50B7C2DF60B7C2D000083120313610887
:100B080084008317621C83130130F500630CF60020
:100B1800F60C760C0739013E932D0310F50DFF3EB8
:100B2800031D912D7508FF3A800508007B1C9D2D3B
:100B38009E2DAB2D831203132E08F6002C08F70008
:100B48002D08F8000A128A11DA260A128A1183126D
:100B58000313B01FB02DB12DB32DAF01B001B201F9
:100B6800B301CD2D2030F2000030F30083120313BF
:100B78002C08F4002D08F5000A128A1134230A12F1
:100B88008A11013083120313B2070318B30A003025
:100B9800B3073308803AB1003008803A3102031DA8
:100BA800D72D2F083202031CDA2DDB2DB62D7B182A
:100BB800DE2DDF2DEC2D831203132E08F6002C08F2
:100BC800F7002D08F8000A128A11DA260A128A118B
:100BD800080083120313A301A401162E2308780723
:100BE800A1007908A0000318A00AA31FFC2DA003E8
:100BF800831203132008A2002208FF0021088400A2
:100C08000A128A1105270A128A110A128A11D42394
:100C18000A128A11013083120313A3070318A40AC6
:100C28000030A40723087807A1007908A00003185A
:100C3800A00AA31F202EA003831203132008A200DA
:100C48002208FF00210884000A128A1105270A12C7
:100C58008A11003A031D312E322EF22D0800F701B9
:100C6800F8017208730403193A2E3B2E702E0130D6
:100C7800F600472E01300310F20DF30DFF3E031D61
:100C88003F2E0130F607F31F4A2E4B2E3E2E013021
:100C98000310F70DF80DFF3E031D4C2E7308750267
:100CA800031D582E72087402031C5B2E5C2E632EE3
:100CB8007208F4027308031CF503F5027714013077
:100CC8000310F30CF20CFF3E031D642E0130F602F4
:100CD800031D6F2E702E4B2E7808F3007708F20054
:100CE80008007208730403197A2E7B2EA82E01308F
:100CF800F600872E01300310F20DF30DFF3E031DA1
:100D08007F2E0130F607F31F8A2E8B2E7E2E730856
:100D18007502031D912E72087402031C942E952EE1
:100D28009B2E7208F4027308031CF503F5020130C8
:100D38000310F30CF20CFF3E031D9C2E0130F6024B
:100D4800031DA72EA82E8B2E7508F3007408F20039
:100D580008000B1DB02EB12ED32E013083160313BD
:100D6800A4070318A50A0030A5070030250265303E
:100D780003192402031CC12EC22ECE2E0130831269
:100D88000313E6070318E70A0030E707831603137F
:100D9800A401A501B2308312031381000B1171085D
:100DA8008A00700E8300FE0E7E0E09008312031364
:100DB800AA01AB01F72E2908F900FA017908F20017
:100DC8007A08F3007708F4007808F5000A128A1107
:100DD80034230A128A11013083120313AA07031855
:100DE800AB0A0030AB072A087607F90079088400B7
:100DF80083130008A9002908031D032F042FDF2EE1
:100E08000800FF1B0F2F83137F1883170008840A1D
:100E18000319FF0A080007308A000408840A8207B9
:100E2800003425343034323475343A34253430348F
:100E38003234753400345434693465346D34703464
:100E48006F343A3420340034303430343A34303467
:100E580030340034F601F701721C332F342F3A2F47
:100E68007408F6070318F70A7508F7070130031026
:100E7800F40DF50DFF3E031D3B2F01300310F30C5D
:100E8800F20CFF3E031D422F72087304031D4D2F01
:100E98004E2F302F7708F3007608F2000800503004
:100EA80083120313D5004E08D6000030D700D801AE
:100EB800D901DF01E0015630C9000030CA004F08EF
:100EC800CB005530CC000A128A1176270A128A11F3
:100ED8008312031358084E07D40054088400831360
:100EE80080010800831203134B08CD00882F49089E
:100EF800BD004A08BE004D30BF004C08C0000A12B1
:100F08008A11CF210A128A11831203134D08840013
:100F18000A128A110F270A128A11003A031D952F07
:100F2800962F7B2FC901CA010800073083160313C7
:100F38008100B2308312031381008B168B170800CF
:100F480064008001840A0406031900340406A52FEE
:0C0F5800073400341A342C343E340800F6
:04400E00F12FFF3F50
:00000001FF
