:060000000A128A11FA2F1A
:100E3600F501F31F1F2F202F272FF209F309F20ABE
:100E46000319F30A0130F500F11F2A2F2B2F302F3B
:100E5600F009F109F00A0319F10A7008710403197F
:100E6600352F362F632F0130F400422F0130031047
:100E7600F00DF10DFF3E031D3A2F0130F407F11F6F
:100E8600452F462F392F71087302031D4C2F70080A
:100E96007202031C4F2F502F562F7008F202710852
:100EA600031CF303F30201300310F10CF00CFF3EB8
:100EB600031D572F0130F402031D622F632F462FA7
:100EC60075080319672F682F6D2FF209F309F20AC7
:100ED6000319F30A7308F1007208F000080083167C
:100EE600031388018312031388010130F9070318DD
:100EF600FA0A0030FA07A72F01308312031388007D
:100F0600D82F0230831203138800D82F043083129F
:100F160003138800D82F0830831203138800D82FB4
:100F26001030831203138800D82F20308312031346
:100F36008800D82F4030831203138800D82F8030C2
:100F4600831203138800D82F7A08003A0319AC2FAE
:100F5600D82F7908013A03197F2F033A0319842FF2
:100F6600013A0319892F073A03198E2F013A0319FB
:100F7600932F033A0319982F013A03199D2F0F3A1D
:100F86000319A22F013A03199D2F033A0319982F2B
:100F9600013A0319932F073A03198E2F013A0319C1
:100FA600892F033A0319842FD82F0630F8001330FF
:100FB600F700AD30F600F60BDE2FF70BDE2FF80B41
:100FC600DE2FE52F0E30F0000030F1007A08F30036
:100FD6007908F2000A128A111B270A128A1171086F
:100FE600FA007008F900782F0A128A110028F90110
:0A0FF600FA0183010A128A11722F1A
:04400E00F12FFF3F50
:00000001FF
