:100000000A128A11E32F00308A000408840A82074A
:1000100000340434043415340E3404341F340434EE
:1000200004340034073417341F340E3408340C34CD
:100030000034203420342034473441344D344534A6
:1000400020344F3456344534523420342034203454
:100050002034003420342034203453345434413498
:10006000523454342E342E342E3420342034203460
:10007000003420342034443449344E344F34203456
:10008000473441344D344534203420342034003456
:10061E0003340F340134F801F901262B78087607DC
:10062E00F7007708840000080A128A11F7240A12CC
:10063E008A110130F8070318F90A0030F907780813
:10064E007607F7007708840083130008031D302B0C
:10065E00312B152B0800F701F801482B7708760788
:10066E0084000A128A1103200A128A110A128A11B0
:10067E00F7240A128A110130F7070318F80A00301E
:10068E00F8077708760784000A128A1103200A12E7
:10069E008A11003A031D542B552B352B080083125B
:1006AE0003134D08031D5C2B602B831203130814D8
:1006BE00632B83120313081002304D020318682BAC
:1006CE006C2B8312031388146F2B83120313881061
:1006DE0003304D020318742B782B83120313081565
:1006EE007B2B8312031308110800F301F401992BDD
:1006FE00831203138815C730F200852BF20B842B5F
:10070E00882B892B831203138811C730F2008F2B8D
:10071E00F20B8E2B922B932B0130F3070318F40A56
:10072E000030F40771087402031D9F2B70087302CA
:10073E00031CA22BA32B7F2B8312031388110800FB
:10074E00F900083079020318AD2BAE2BEE2B790889
:10075E00F70002300310F70DFF3E031DB12B0310FF
:10076E00770D403EF80004300310F80CFF3E031DD9
:10077E00BB2B78080F390A128A1141240A128A11EA
:10078E007908F70002300310F70DFF3E031DCA2B48
:10079E000310770D403E0F390A128A1141240A12B6
:1007AE008A11FA017A08760784000A128A11032048
:1007BE000A128A110A128A11F7240A128A110130BA
:1007CE00FA0708307A02031CED2BEE2BD92B08000A
:1007DE00831203134E080319F52BF62BF92B013058
:1007EE00CE02FB2B0F30CE0002304E06031D002C26
:1007FE00012C402C4F03031D052C062C402CC83019
:10080E00F0000030F1000A128A117C230A128A11BC
:10081E00013083120313CD020F30CE004D08031D9D
:10082E00192C1A2C402C00300A128A1141240A125B
:10083E008A1101300A128A1141240A128A110830D3
:10084E000A128A1141240A128A1101300A128A11DF
:10085E0041240A128A111130F6000A128A1132232B
:10086E000A128A11831203130810881008118811B6
:10087E003F2C0800F50083120313460884008317EB
:10088E00471C83130130F30048080739013E512CF1
:10089E000310F30DFF3E031D4F2C7308FF3A800526
:1008AE0075080A128A1138260A128A118312031346
:1008BE00460884008317471C83130130F300480C4D
:1008CE00F400F40C740C0739013E6F2C0310F30D79
:1008DE00FF3E031D6D2C730880040B30F400623054
:1008EE00F300F30B782CF40B782C00008312031317
:1008FE00460884008317471C83130130F300480C0D
:10090E00F400F40C740C0739013E8F2C0310F30D18
:10091E00FF3E031D8D2C7308FF3A800508008312DD
:10092E000313C2014208203E84002030831380004E
:10093E000130C20710304202031CA62CA72C992CA2
:10094E00B0014F08031DAC2CAD2CAF2C0130A20012
:10095E00C2014208313E8400203080000130C207BF
:10096E0010304202031CBC2CBD2CB02CC1014F0315
:10097E00031DC22CC32CC52C0130B30010304E0207
:10098E000318CA2CCB2CD02C4E08313E84000230DA
:10099E00800008300A128A1141240A128A1101308D
:1009AE000A128A1141240A128A112030F6000A1204
:1009BE008A1112230A128A110C300A128A1141244A
:1009CE000A128A1101300A128A1141240A128A115E
:1009DE003130F6000A128A1112230A128A11080007
:1009EE00F50083120313460884008317471C8313F4
:1009FE000130F30048080739013E072D0310F30DAF
:100A0E00FF3E031D052D730880047508F3000430A6
:100A1E000310F30CFF3E031D0F2D73080F390A123E
:100A2E008A1138260A128A1183120313460884008B
:100A3E008317471C83130130F300480CF400F40CA9
:100A4E00740C0739013E2D2D0310F30DFF3E031DCF
:100A5E002B2D730880041A30F300F30B342D000095
:100A6E0083120313460884008317471C8313013037
:100A7E00F300480CF400F40C740C0739013E492DB8
:100A8E000310F30DFF3E031D472D7308FF3A80053B
:100A9E0075080F390A128A1138260A128A11831222
:100AAE000313460884008317471C83130130F30099
:100ABE00480CF400F40C740C0739013E682D031039
:100ACE00F30DFF3E031D662D730880041A30F300EC
:100ADE00F30B6F2D00008312031346088400831757
:100AEE00471C83130130F300480CF400F40C740C13
:100AFE000739013E842D0310F30DFF3E031D822D99
:100B0E007308FF3A80050800463084007608831388
:100B1E008000840A77088000840A78088000840A9E
:100B2E0079088000840A7A0880000030831203134B
:100B3E004706031DA42D05304606031DA72DA82D1F
:100B4E00AC2D831603138501C72D00304706031DF8
:100B5E00B22D06304606031DB52DB62DBA2D8316C1
:100B6E0003138601C72D00304706031DC02D073025
:100B7E004606031DC32DC42D372E8316031387017E
:100B8E003430FC00F130FB00FB0BCB2DFC0BCB2DDE
:100B9E00D02D03300A128A1141240A128A110D3007
:100BAE00FC00FB30FB00FB0BDA2DFC0BDA2DDF2DEE
:100BBE0003300A128A1141240A128A112A30FC00CB
:100BCE008D30FB00FB0BE92DFC0BE92DEE2D0330D8
:100BDE000A128A1141240A128A1102300A128A114B
:100BEE0041240A128A1102300A128A1141240A1271
:100BFE008A1108300A128A1141240A128A11003011
:100C0E000A128A1141240A128A1106300A128A1116
:100C1E0041240A128A110830FD007D157D08FB0063
:100C2E0004300310FB0CFF3E031D182E7B080F39FA
:100C3E000A128A1141240A128A117D080F390A12EA
:100C4E008A1141240A128A1100300A128A11412493
:100C5E000A128A1101300A128A1141240A128A11CB
:100C6E000800F200721C3C2E3D2E522E83120313EE
:100C7E00460884008317471C83130130F00049088F
:100C8E000739013E4C2E0310F00DFF3E031D4A2E78
:100C9E0070088004672E831203134608840083179E
:100CAE00471C83130130F00049080739013E612EBD
:100CBE000310F00DFF3E031D5F2E7008FF3A8005F6
:100CCE00F21C6A2E6B2E812E460884008317471C59
:100CDE0083130130F000490CF100F10C710C07394F
:100CEE00013E7B2E0310F00DFF3E031D792E700882
:100CFE008004972E460884008317471C8313013007
:100D0E00F000490CF100F10C710C0739013E912EE7
:100D1E000310F00DFF3E031D8F2E7008FF3A800565
:100D2E00721D9A2E9B2EAE2E460884008317471CEA
:100D3E0083130130F0004A080739013EA82E031034
:100D4E00F00DFF3E031DA62E70088004C12E46082E
:100D5E0084008317471C83130130F0004A080739BB
:100D6E00013EBB2E0310F00DFF3E031DB92E700881
:100D7E00FF3A8005F21DC42EC52EDB2E46088400D8
:100D8E008317471C83130130F0004A0CF100F10C5D
:100D9E00710C0739013ED52E0310F00DFF3E031DD9
:100DAE00D32E70088004F12E460884008317471C4A
:100DBE0083130130F0004A0CF100F10C710C07396D
:100DCE00013EEB2E0310F00DFF3E031DE92E7008C1
:100DDE00FF3A8005080083160317880189018316E0
:100DEE0003138701880106148312031388018811E7
:100DFE00831603138113073083120313C6000030CA
:100E0E00C7004808F8390238C8004808C7391838EA
:100E1E00C8004908F8390438C9004908C7392838C4
:100E2E00C9004A08F8390638CA003830CA04763084
:100E3E00840046088000840A47088000840A480817
:100E4E008000840A49088000840A4A0880000A1239
:100E5E008A118B250A128A110930F60001300A1206
:100E6E008A11A7230A128A110130F60002300A12E3
:100E7E008A11A7230A128A1100300A128A114124FC
:100E8E000A128A1101300A128A1141240A128A1199
:100E9E0008300A128A1141240A128A1101300A12EC
:100EAE008A1141240A128A113130F6000A128A116F
:100EBE0032230A128A110C300A128A1141240A12A4
:100ECE008A1101300A128A1141240A128A11223023
:100EDE00F6000A128A1132230A128A111030831276
:100EEE000313C5003930C4000D30C300C30B7D2F72
:100EFE00C40B7D2FC50B7D2F00300A128A114124A1
:100F0E000A128A1101300A128A1141240A128A1118
:100F1E00831203130618942F952FB22F4C08031D1E
:100F2E00992F9A2FB22F343083120313C400F1304D
:100F3E00C300C30BA02FC40BA02F831203130618DC
:100F4E00A92FAA2FB22F0130CC000330CB00061CE4
:100F5E00B12FB22FAE2F4C03031DB62FB72FC12FBB
:100F6E00CF010130CB02031DBD2FBE2FC12F01308B
:100F7E00CF00CC010A128A11EF230A128A110A122B
:100F8E008A1156230A128A110A128A1196240A12FB
:100F9E008A11023083120313C5008630C4009830C4
:100FAE00C300C30BD82FC40BD82FC50BD82F0000EE
:100FBE008F2F0A128A1100280A128A110F230A1281
:100FCE008A11CD000A128A1110230A128A11CE003C
:100FDE000A128A1111230A128A11CF00C601C70103
:100FEE00C801C901CA01CB01CC0183010A128A11C1
:020FFE00F22ED1
:02400E00F22F8F
:00000001FF
