:100000000A128A11DE2FFF1B0D2883137F18831716
:100010000008840A0319FF0A080000308A00040857
:10002000840A82070034FF34FF34FF34FF34FF3486
:10003000FF34FF34FF340434043415340E340434F4
:100040001F34043404340034073417341F340E349E
:1000500008340C3400342034203420344734413404
:100060004D34453420344F345634453452342034E2
:1000700020342034203400342034203420345334CD
:1000800054344134523454342E342E342E342034EB
:1000900020342034003420342034443449344E3465
:1000A0004F342034473441344D34453420342034E7
:1000B0002034003450346F3469346E347434733403
:0A00C0003A3400342534753400345E
:10015C00080064008001840A0406031900340406B4
:10016C00B028073400341A342C343E3403340F34A2
:10017C0001347E088A007F0882000A128A11BF208F
:10018C000A128A118000840A04087D0603190034BF
:10019C00FF0A0319FE0AC328323083120313B50079
:1001AC003008B6000030B700B801B901BF01C0017A
:1001BC003630AC000030AD003108AE003530AF0049
:1001CC000A128A11F5200A128A11831203133808B5
:1001DC003007B400340884008313800108008312B4
:1001EC0003132E08FD000929831203132C08A00009
:1001FC002D08A1007D30A2002F08A3000A128A113D
:10020C00B4250A128A117D0884000A128A110D2065
:10021C000A128A11003A031D14291529FA2883128F
:10022C000313AC01AD010800F301F401372983126B
:10023C0003138815C730F2002329F20B2229262933
:10024C002729831203138811C730F2002D29F20BD2
:10025C002C29302931290130F3070318F40A003016
:10026C00F40771087402031D3D2970087302031C06
:10027C00402941291D298312031388110800700895
:10028C00710403194A294B2978290130F4005729A4
:10029C0001300310F00DF10DFF3E031D4F2901300D
:1002AC00F407F11F5A295B294E2971087302031DAB
:1002BC00612970087202031C642965296B29700876
:1002CC00F2027108031CF303F30201300310F10C6A
:1002DC00F00CFF3E031D6C290130F402031D77293D
:1002EC0078295B297308F1007208F0000800F4010A
:1002FC00F50170087104031984298529BA29013084
:10030C00F600912901300310F00DF10DFF3E031D95
:10031C0089290130F607F11F942995298829013084
:10032C000310F40DF50DFF3E031D962971087302A1
:10033C00031DA22970087202031CA529A629AD2948
:10034C007008F2027108031CF303F30274140130F9
:10035C000310F10CF00CFF3E031DAE290130F60228
:10036C00031DB929BA2995297508F1007408F00004
:10037C000800FB01FC01E4297B087607F9007708EB
:10038C00F8000318F80AFB1FCC29F8037808FA00C8
:10039C007A0883120313FF00790884000A128A1169
:1003AC0003200A128A110A128A111F230A128A11B7
:1003BC000130FB070318FC0A0030FC077B087607AA
:1003CC00F9007708F8000318F80AFB1FEE29F80368
:1003DC007808FA007A0883120313FF007908840066
:1003EC000A128A1103200A128A11003A031DFF29EE
:1003FC00002AC2290800F9007908F700023003101E
:10040C00F70DFF3E031D052A0310770D403EF80043
:10041C0004300310F80CFF3E031D0F2A78080F3927
:10042C000A128A114F220A128A117908F700023037
:10043C000310F70DFF3E031D1E2A0310770D403EDF
:10044C000F390A128A114F220A128A11FA017A08FC
:10045C00760784000A128A110D200A128A110A12D8
:10046C008A111F230A128A110130FA0708307A0206
:10047C00031C412A422A2D2A08300A128A114F22C3
:10048C000A128A1100300A128A114F220A128A119A
:10049C000800F50083120313530884008317541CBF
:1004AC0083130130F30055080739013E5F2A03100E
:1004BC00F30DFF3E031D5D2A7308FF3A8005750896
:1004CC000A128A11FA240A128A118312031353088E
:1004DC0084008317541C83130130F300550CF40073
:1004EC00F40C740C0739013E7D2A0310F30DFF3E0A
:1004FC00031D7B2A730880040B30F4006230F30078
:10050C00F30B862AF40B862A00008312031353087C
:10051C0084008317541C83130130F300550CF40032
:10052C00F40C740C0739013E9D2A0310F30DFF3EA9
:10053C00031D9B2A7308FF3A8005080083120313DE
:10054C0066080319AA2AAB2AAE2A0130E602B02AA1
:10055C000F30E60002306606031DB52AB62A172BAB
:10056C006703031DBA2ABB2A172B00300A128A1103
:10057C004F220A128A1101300A128A114F220A12D2
:10058C008A110C300A128A114F220A128A11023077
:10059C000A128A114F220A128A1102300A128A1187
:1005AC001F230A128A11C830F0000030F1000A1221
:1005BC008A111A210A128A11013083120313E502DF
:1005CC000808FD0003107D0C88000F30E60065085C
:1005DC00031DF12AF22A1E2B00300A128A114F2217
:1005EC000A128A1101300A128A114F220A128A1138
:1005FC0008300A128A114F220A128A1101300A128B
:10060C008A114F220A128A111930F6008030F70035
:10061C000A128A11BF210A128A118312031388113C
:10062C00162B6603031D1B2B1C2B1E2B0130DF0707
:10063C000800F50083120313530884008317541C1D
:10064C0083130130F30055080739013E2F2B03109B
:10065C00F30DFF3E031D2D2B730880047508F3006A
:10066C0004300310F30CFF3E031D372B73080F39B6
:10067C000A128A11FA240A128A11831203135308DC
:10068C0084008317541C83130130F300550CF400C1
:10069C00F40C740C0739013E552B0310F30DFF3E7F
:1006AC00031D532B730880041A30F300F30B5C2BDF
:1006BC00000083120313530884008317541C831304
:1006CC000130F300550CF400F40C740C0739013EA6
:1006DC00712B0310F30DFF3E031D6F2B7308FF3AB4
:1006EC00800575080F390A128A11FA240A128A1128
:1006FC0083120313530884008317541C8313013093
:10070C00F300550CF400F40C740C0739013E902BDB
:10071C000310F30DFF3E031D8E2B730880041A305B
:10072C00F300F30B972B0000831203135308840080
:10073C008317541C83130130F300550CF400F40C94
:10074C00740C0739013EAC2B0310F30DFF3E031D57
:10075C00AA2B7308FF3A800508007208730403196A
:10076C00B82BB92BBF2B72087304031DBE2BBF2BE8
:10077C00C62B70080A128A11AE200A128A114C2C50
:10078C007208093EF40073080318013E003EF500A0
:10079C00740884008317751C83130008F600840A00
:1007AC000008F700760877040319DD2BDE2B102CDC
:1007BC007208093EF40073080318013E003EF50070
:1007CC00740884008317751C83130008F600840AD0
:1007DC000008F7007208023EF80073080318013E87
:1007EC00003EF900780884008317791C83130008F5
:1007FC00FA00840A0008FB007B08803AFC007708AA
:10080C00803A7C02031D0C2C76087A0203180F2CFC
:10081C00102C4C2C720884008317731C8313000853
:10082C00F400840A0008F5007208023EF600730812
:10083C000318013E003EF700760884008317771CEE
:10084C00831300087407F9007508F8000318F80AF8
:10085C00801F312CF8037808FA007908840083177C
:10086C007A1C8313700880007208023EF40073082F
:10087C000318013E003EF500740884008317751CB4
:10088C00831301308007840A0318800A0800533050
:10089C008400760883138000840A77088000840A19
:1008AC0078088000840A79088000840A7A0880001D
:1008BC000030831203135406031D662C05305306B7
:1008CC00031D692C6A2C6E2C831603138501892C4D
:1008DC0000305406031D742C06305306031D772C70
:1008EC00782C7C2C831603138601892C003054063B
:1008FC00031D822C07305306031D852C862CF92CE6
:10090C008316031387013430FC00F130FB00FB0B22
:10091C008D2CFC0B8D2C922C03300A128A114F2239
:10092C000A128A110D30FC00FB30FB00FB0B9C2CD7
:10093C00FC0B9C2CA12C03300A128A114F220A1298
:10094C008A112A30FC008D30FB00FB0BAB2CFC0B0E
:10095C00AB2CB02C03300A128A114F220A128A11C6
:10096C0002300A128A114F220A128A1102300A121C
:10097C008A114F220A128A1108300A128A114F2248
:10098C000A128A1100300A128A114F220A128A1195
:10099C0006300A128A114F220A128A110830FD0001
:1009AC007D157D08FB0004300310FB0CFF3E031D7E
:1009BC00DA2C7B080F390A128A114F220A128A117B
:1009CC007D080F390A128A114F220A128A1100303F
:1009DC000A128A114F220A128A1101300A128A1144
:1009EC004F220A128A110800F200721CFE2CFF2CF6
:1009FC00142D83120313530884008317541C831380
:100A0C000130F00056080739013E0E2D0310F00D91
:100A1C00FF3E031D0C2D70088004292D8312031337
:100A2C00530884008317541C83130130F0005608BC
:100A3C000739013E232D0310F00DFF3E031D212D20
:100A4C007008FF3A8005F21C2C2D2D2D432D5308D8
:100A5C0084008317541C83130130F000560CF100F2
:100A6C00F10C710C0739013E3D2D0310F00DFF3ECA
:100A7C00031D3B2D70088004592D530884008317E7
:100A8C00541C83130130F000560CF100F10C710C66
:100A9C000739013E532D0310F00DFF3E031D512D60
:100AAC007008FF3A8005721D5C2D5D2D702D53086A
:100ABC0084008317541C83130130F0005708073946
:100ACC00013E6A2D0310F00DFF3E031D682D7008CA
:100ADC008004832D530884008317541C8313013026
:100AEC00F00057080739013E7D2D0310F00DFF3E35
:100AFC00031D7B2D7008FF3A8005F21D862D872D76
:100B0C009D2D530884008317541C83130130F0006F
:100B1C00570CF100F10C710C0739013E972D0310A5
:100B2C00F00DFF3E031D952D70088004B32D530866
:100B3C0084008317541C83130130F000570CF10010
:100B4C00F10C710C0739013EAD2D0310F00DFF3E79
:100B5C00031DAB2D7008FF3A8005080083120313A8
:100B6C0022088400000884000A128A110D200A123F
:100B7C008A11253A031DC32DC42D5E2E2208840034
:100B8C0001308007D801D9010030DC00FF30DA00D9
:100B9C00FF30DB00220884000008AA002A08840029
:100BAC000A128A110D200A128A11753A031DDF2DC3
:100BBC00E02D572E2308840083130008A400023074
:100BCC008007240884000008A600840A0008A700F7
:100BDC00220884002A08013E80004C2E2030AB00F5
:100BEC000130AB022B08A03E84000A30F00000302C
:100BFC00F1002708F3002608F2000A128A11452199
:100C0C000A128A117008303E831380000A30F000FB
:100C1C000030F100831203132708F3002608F200BA
:100C2C000A128A117D210A128A1171088312031388
:100C3C00A7007008A600260827040319262E272EC5
:100C4C00452E2B08031D2B2E2C2EF62D452E2B0856
:100C5C00A03E840083130008A400A5012408F00022
:100C6C002508F1002008F2002108F3000A128A116D
:100C7C00B3230A128A11013083120313AB072030FD
:100C8C002B06031D4A2E4B2E2D2E772E2A08840060
:100C9C000A128A110D200A128A11753A0319F42DC1
:100CAC00572E831203132208840001308007772EFD
:100CBC0022088400000884000A128A110D200A12EE
:100CCC008A11A400A5012408F0002508F1002008D1
:100CDC00F2002108F3000A128A11B3230A128A11B6
:100CEC00572E0800831603178801890183160313F6
:100CFC0087018801831203130614073088008811BA
:100D0C008316031301087F39810001138B100B1616
:100D1C008B174E30840083120313600883138000FA
:100D2C00840A61088000840A62088000840A6308CF
:100D3C008000840A64088000763084004E088000AD
:100D4C00840A4F088000840A50088000840A5108E5
:100D5C008000840A520880000A128A114D240A125B
:100D6C008A111130F60000300A128A1101220A127F
:100D7C008A110930F60001300A128A1101220A1276
:100D8C008A110130F60002300A128A1101220A126D
:100D9C008A1100300A128A114F220A128A1101306C
:100DAC000A128A114F220A128A1108300A128A1169
:100DBC004F220A128A1101300A128A114F220A128A
:100DCC008A113930F6008030F7000A128A11BF21DF
:100DDC000A128A110C300A128A114F220A128A1135
:100DEC0001300A128A114F220A128A112A30F60097
:100DFC008030F7000A128A11BF210A128A110B30B7
:100E0C0083120313C3002630C2005D30C100C10B36
:100E1C000D2FC20B0D2FC30B0D2F00300A128A1190
:100E2C004F220A128A1101300A128A114F220A1219
:100E3C008A1108300A128A114F220A128A110430C0
:100E4C000A128A114F220A128A114830F600803099
:100E5C00F7000A128A11BF210A128A114430831238
:100E6C000313B0005030B1005F08C100C20141084B
:100E7C00B2004208B3000A128A11D2200A128A1157
:100E8C004430F6000030F7000A128A11BF210A1212
:100E9C008A11831203136708031D552F562F632FD6
:100EAC0008300A128A114F220A128A1102300A12D1
:100EBC008A114F220A128A116F2F0C300A128A11D2
:100ECC004F220A128A1102300A128A114F220A1278
:100EDC008A1100300A128A111F230A128A118312F6
:100EEC0003136608C03EC10004300310C10CFF3E62
:100EFC00031D7B2F41080F390A128A114F220A1247
:100F0C008A11831203136608C03E0F390A128A1124
:100F1C004F220A128A1101300A128A111F230A1257
:100F2C008A118312031306189C2F9D2FB62F5E086F
:100F3C00031DA12FA22FB62F343083120313C2002E
:100F4C00F130C100C10BA82FC20BA82F83120313C1
:100F5C000618B12FB22FB62F0130DE000230DD00A3
:100F6C005E03031DBA2FBB2FC62F0130DD02E70134
:100F7C005D08031DC22FC32FC62F0130E700DE0111
:100F8C000A128A11A4220A128A1102308312031344
:100F9C00C3000430C200B930C100C10BD32FC20B47
:100FAC00D32FC30BD32FDA2F132F0A128A11002839
:100FBC0083136830FD000030FE00B730FF00603056
:100FCC0084000A128A11C3200A128A11A0308400EC
:100FDC00C0300A128A11AF200A128A1153308400D1
:100FEC0060300A128A11AF200A128A1183010A1288
:040FFC008A11782EB0
:04400E00F12FFF3F50
:00000001FF
