:100000000A128A110C280800FE00030EF0000A08EC
:10001000F1000A128A15742F0A128A110F2883160A
:1000200003130A128A15DB260A128A11E5000A1246
:100030008A15DC260A128A11E6000A128A15DD26C4
:100040000A128A11E7000A128A15DE260A128A119C
:10005000E8000A128A15DF260A128A11E9008313C2
:10006000A0308400CA300A128A15E0260A128A11CA
:10007000613084006E300A128A15E0260A128A1155
:10008000FB0183010A128A1145280A128A15E82603
:100090000A128A110A128A11F3270A128A11D4301D
:1000A000840083160313650883138000840A66089E
:1000B0008000840A67088000840A68088000840A37
:1000C000690880002030840054088000840A5508A4
:1000D0008000840A56088000840A57088000840A39
:1000E000580880000A128A1128230A128A118316DE
:1000F0000313880183120313880100300A128A1146
:1001000077260A128A1101300A128A1177260A12FA
:100110008A1108300A128A1177260A128A110030D1
:100120000A128A1177260A128A110130F8008030EB
:10013000F9000A128A116B270A128A110C300A126E
:100140008A1177260A128A110A300A128A11772632
:100150000A128A111530F8008030F9000A128A114B
:100160006B270A128A1108300A128A1177260A129E
:100170008A110B300A128A1177260A128A110A1282
:100180008A15F7260A128A11730883160313DA00F8
:100190007208D900003083120313A7000030A600B4
:1001A0000330A500FF30A400831603135908F200A2
:1001B0005A08F300F401F5010030F9000030F800AE
:1001C000C330F7005030F6000A128A111F270A12B6
:1001D0008A11750883120313AB007408AA00730810
:1001E000A9007208A8000A128A1175240A128A113D
:1001F00083120313250883160313E40083120313E9
:10020000240883160313E3001030F2002730F300B4
:100210006408F5006308F4000A128A11B1270A1273
:100220008A11730883160313DC007208DB00103098
:10023000F2002730F3006408F5006308F4000A12A6
:100240008A15C8270A128A11730883160313DE0061
:100250007208DD00CA3083120313CE001B30CF00BA
:10026000831603135C0883120313D1008316031350
:100270005B0883120313D000831603135E088312F6
:100280000313D300831603135D0883120313D200F4
:100290000A128A152C270A128A11CA30F800003077
:1002A000F9000A128A116B270A128A110C300A12FD
:1002B0008A1177260A128A110A300A128A117726C1
:1002C0000A128A113C30F2000030F300831203134B
:1002D0006D08F5006C08F4000A128A11B1270A12A1
:1002E0008A11730883160313E0007208DF003C30A4
:1002F000F2000030F300831203136D08F5006C0860
:10030000F4000A128A15C8270A128A117308831684
:100310000313E2007208E100C03083120313CE0021
:100320000B30CF0083160313600883120313D10030
:10033000831603135F0883120313D000831603137D
:10034000620883120313D300831603136108831218
:100350000313D2000A128A152C270A128A11C03000
:10036000F8000030F9000A128A116B270A128A116C
:10037000B3280A128A110C28F400741CC029C12960
:10038000D62983120313610884008317621C831328
:100390000130F20064080739013ED0290310F20D44
:1003A000FF3E031DCE2972088004EB29831203133C
:1003B000610884008317621C83130130F200640813
:1003C0000739013EE5290310F20DFF3E031DE32925
:1003D0007208FF3A8005F41CEE29EF29052A61080E
:1003E00084008317621C83130130F200640CF30055
:1003F000F30C730C0739013EFF290310F20DFF3E89
:10040000031DFD29720880041B2A610884008317DC
:10041000621C83130130F200640CF300F30C730CC4
:100420000739013E152A0310F20DFF3E031D132A62
:100430007208FF3A8005741D1E2A1F2A322A61089D
:1004400084008317621C83130130F20065080739AA
:10045000013E2C2A0310F20DFF3E031D2A2A7208CA
:100460008004452A610884008317621C83130130CD
:10047000F20065080739013E3F2A0310F20DFF3EE6
:10048000031D3D2A7208FF3A8005F41D482A492AB7
:100490005F2A610884008317621C83130130F20015
:1004A000650CF300F30C730C0739013E592A031055
:1004B000F20DFF3E031D572A72088004752A610859
:1004C00084008317621C83130130F200650CF30073
:1004D000F30C730C0739013E6F2A0310F20DFF3E37
:1004E000031D6D2A7208FF3A80050800831203136A
:1004F0003F0884008313000884000A128A150A202A
:100500000A128A11253A031D862A872A0E2B3F08D4
:10051000840001308007E601E7010030FB00FF3076
:10052000E800FF30E900C701AB2AFB143F08840054
:1005300001308007AB2A0130C700AB2A3F08840096
:10054000000884000A128A150A200A128A11303A19
:100550000319952A9B2A47080319AF2AB02A9E2A15
:100560003F08F8004008F9000A128A1120260A12F2
:100570008A11790883120313E7007808E600E71F61
:10058000C22AC32AC92A7B14E609E709E60A031925
:10059000E70A3F08840083130008C8004808840065
:1005A0000A128A150A200A128A11753A031DD92ADD
:1005B000DA2A062B400884000008FF00023080077A
:1005C0007F0884000008C300840A0008C4003F08B4
:1005D00084004808013E8000FB2A3D08B4003E0824
:1005E000B5004408B7004308B6000A128A11A225D4
:1005F0000A128A11272B480884000A128A150A2039
:100600000A128A11753A0319ED2A062B8312031375
:100610003F088400013083138007272B3F088400A4
:10062000000884000A128A150A200A128A11C100E1
:10063000C2014108F2004208F3003D08F4003E0800
:10064000F5000A128A11D5230A128A11062B080016
:100650006130840083120313200883138000840A0E
:1006600021088000840A22088000840A2308800070
:10067000840A2408800000306206031D412B0530E7
:100680006106031D442B452B492B8316031385015B
:10069000642B00306206031D4F2B06306106031DDC
:1006A000522B532B572B831603138601642B0030D8
:1006B0006206031D5D2B07306106031D602B612B55
:1006C000D42B8316031387013430F900F130F8007E
:1006D000F80B682BF90B682B6D2B03300A128A116B
:1006E00077260A128A110D30F900FB30F800F80B5A
:1006F000772BF90B772B7C2B03300A128A11772684
:100700000A128A112A30F9008D30F800F80B862B76
:10071000F90B862B8B2B03300A128A1177260A12CB
:100720008A1102300A128A1177260A128A110230BF
:100730000A128A1177260A128A1108300A128A11BF
:1007400077260A128A1100300A128A1177260A12B5
:100750008A1106300A128A1177260A128A11083085
:10076000FA007A157A08F80004300310F80CFF3EFE
:10077000031DB52B78080F390A128A1177260A1241
:100780008A117A080F390A128A1177260A128A11F9
:1007900000300A128A1177260A128A1101300A12D1
:1007A0008A1177260A128A11080074087504031941
:1007B000DA2BDB2BE12B74087504031DE02BE12BF6
:1007C000E82B72080A128A1103200A128A11742C6B
:1007D0007408093E83120313A00075080318013E34
:1007E000003EA100200884008317211C8313000809
:1007F000A200840A0008A300220823040319012C84
:10080000022C342C7408093EA00075080318013E20
:10081000003EA100200884008317211C83130008D8
:10082000A200840A0008A3007408023EA400750810
:100830000318013E003EA500240884008317251CF0
:1008400083130008A600840A0008A7002708803A3E
:10085000A8002308803A2802031D302C2208260213
:100860000318332C342C742C740884008317751CE3
:100870008313000883120313A000840A0008A10058
:100880007408023EA20075080318013E003EA30052
:10089000220884008317231C831300082007A50067
:1008A0002108A4000318A40A801F572CA403831254
:1008B00003132408A600250884008317261C83132D
:1008C000720880007408023EA00075080318013EFB
:1008D000003EA100200884008317211C83130130EF
:1008E0008007840A0318800A080083120313AE01EC
:1008F000A71F7B2C7C2C892CA409A509A609A70974
:10090000A40A0319A50A0319A60A0319A70A0130A4
:10091000AE00AB1F8C2C8D2C9A2CA809A909AA0912
:10092000AB09A80A0319A90A0319AA0A0319AB0AF1
:100930000130AE060030B2000030B1000030B0002F
:100940000030AF0027082604250424040319A92C2D
:10095000AA2CF52C0130AD00B82C0130AC000310EE
:10096000A40DA50DA60DA70DAC0BAF2C0130AD0746
:10097000A71FBB2CBC2CAD2C0130AC000310AF0D5D
:10098000B00DB10DB20DAC0BBE2C27082B02031D10
:10099000D32C26082A02031DD32C25082902031D67
:1009A000D32C24082802031CD62CD72CE62C240890
:1009B000A8022508031C250FA9022608031C260FE0
:1009C000AA022708031C270FAB022F1401300310C3
:1009D000A70CA60CA50CA40CFF3E031DE72C0130B0
:1009E000AD02031DF42CF52CBC2C2E080319F92C98
:1009F000FA2C052DAF09B009B109B209AF0A0319E4
:100A0000B00A0319B10A0319B20A3208A700310863
:100A1000A6003008A5002F08A4000800F7008312E4
:100A20000313610884008317621C83130130F500EF
:100A300063080739013E1E2D0310F50DFF3E031D0F
:100A40001C2D750880047708F50004300310F50CA0
:100A5000FF3E031D262D75080F390A128A11BC218D
:100A60000A128A1183120313610884008317621C1F
:100A700083130130F500630CF600F60C760C073991
:100A8000013E442D0310F50DFF3E031D422D750858
:100A900080041A30F500F50B4B2D00008312031370
:100AA000610884008317621C83130130F500630C16
:100AB000F600F60C760C0739013E602D0310F50D9B
:100AC000FF3E031D5E2D7508FF3A800577080F393C
:100AD0000A128A11BC210A128A11831203136108B7
:100AE00084008317621C83130130F500630CF60049
:100AF000F60C760C0739013E7F2D0310F50DFF3EF5
:100B0000031D7D2D750880041A30F500F50B862D28
:100B1000000083120313610884008317621C83138F
:100B20000130F500630CF600F60C760C0739013E37
:100B30009B2D0310F50DFF3E031D992D7508FF3AFF
:100B400080050800013083120313B8006708BA005B
:100B50006608B9001F30BB000030BC0083160313C9
:100B6000BF01EA2DFF3083120313BB070318BC0A31
:100B7000FF30BC073B08A03E84000A30F200003082
:100B8000F3003708F5003608F4000A128A15C82762
:100B90000A128A117208303E8313800083120313F5
:100BA000B801FF30B9070318BA0AFF30BA070A3094
:100BB000F2000030F3003708F5003608F4000A129E
:100BC0008A11B1270A128A11730883120313B7001E
:100BD0007208B60083123B083C040319F02DF12D76
:100BE0000D2E36083704031DF62DF72DB22D3808CB
:100BF000031DFB2DFC2DB22D3A08803AFF008030FA
:100C00007F02031D052E01303902031C082E092E18
:100C10000D2EFB180C2E0D2EB22D8312031334084B
:100C2000AC003508AD003B08A03EAE003A08B0006D
:100C30003908AF000A128A11CC260A128A1108005C
:100C400083120313A101A201780884008313000812
:100C500084000A128A150A200A128A112A3A031DF0
:100C6000322E332E612E78088400013080077908F7
:100C700084000008FF00023080077F08840000081D
:100C8000A100840A0008A200722E2208F3002108A5
:100C9000F2000A30F4000030F5000A128A154F27DE
:100CA0000A128A118312031320087207A100003070
:100CB000031801307307A200780884000130831301
:100CC000800778088400000884000A128A150A2028
:100CD0000A128A11D03EA0000A302002031C712E95
:100CE000722E452E2208F9002108F8000800F700AE
:100CF00083120313610884008317621C831301307D
:100D0000F50063080739013E872E0310F50DFF3EFD
:100D1000031D852E7508FF3A800577080A128A118F
:100D2000BC210A128A1183120313610884008317FD
:100D3000621C83130130F500630CF600F60C760C90
:100D40000739013EA52E0310F50DFF3E031DA32E0E
:100D5000750880040B30F6006230F500F50BAE2EFE
:100D6000F60BAE2E00008312031361088400831774
:100D7000621C83130130F500630CF600F60C760C50
:100D80000739013EC52E0310F50DFF3E031DC32E8E
:100D90007508FF3A800508007B1CCF2ED02EDD2E73
:100DA000831203132E08F6002C08F7002D08F80014
:100DB0000A128A159D270A128A1183120313B01F83
:100DC000E22EE32EE52EAF01B001B201B301FF2EFA
:100DD0002030F2000030F300831203132C08F400DB
:100DE0002D08F5000A128A11D5230A128A11013042
:100DF00083120313B2070318B30A0030B307330892
:100E0000803AB1003008803A3102031D092F2F08C3
:100E10003202031C0C2F0D2FE82E7B18102F112FE0
:100E20001E2F831203132E08F6002C08F7002D083E
:100E3000F8000A128A159D270A128A11080000304C
:100E400083120313A3000030A2000030A100003081
:100E5000A000721C2C2F2D2F462F7608831203130F
:100E6000A007770803110318013E0319382FA107C3
:100E7000780803110318013E03193F2FA2077908D0
:100E800003110318013E0319462FA3070130FA008E
:100E90000310F60DF70DF80DF90DFA0B482F013080
:100EA0000310F50CF40CF30CF20CFF3E031D502F55
:100EB0007508740473047204031D5F2F602F292FBB
:100EC000831203132308F5002208F4002108F3001D
:100ED0002008F200080083120313A301A401942F39
:100EE00023087807A1007908A0000318A00AA31F0F
:100EF0007A2FA003831203132008A2002208FF0008
:100F0000210884000A128A1500200A128A110A1286
:100F10008A110E250A128A11013083120313A307C6
:100F20000318A40A0030A40723087807A100790851
:100F3000A0000318A00AA31F9E2FA003831203136F
:100F40002008A2002208FF00210884000A128A1546
:100F500000200A128A11003A031DAF2FB02F702F04
:100F60000800F601F701720873040319B82FB92FAE
:100F7000EE2F0130F800C52F01300310F20DF30DF4
:100F8000FF3E031DBD2F0130F807F31FC82FC92FE7
:100F9000BC2F01300310F60DF70DFF3E031DCA2FC5
:100FA00073087502031DD62F72087402031CD92F13
:100FB000DA2FE12F7208F4027308031CF503F5021F
:100FC000761401300310F30CF20CFF3E031DE22FE8
:100FD0000130F802031DED2FEE2FC92F7708F30023
:100FE0007608F2000800013083160317880081306C
:100FF000831203139F008030831603139F000800A1
:10100000FF1B0A2883137F1883170008840A03191B
:10101000FF0A080008308A000408840A82070034A6
:1010200056346F346C34743461346A3465343A3411
:101030002034003425343034323475343A34253495
:101040003034323475340034303430343A3430345F
:1010500030340034253475342E342534753400345E
:101DB600073400341A342C343E3464008001840A1B
:101DC6000406031900340406E12E3130831203138E
:101DD60090009E308F0058308E000C10831603132F
:101DE6000C140B178B1708000330F400F40BF92EB4
:101DF600831203139F149F18012F022FFE2E1E0815
:101E0600F300831603131E08F2000800831203135F
:101E16004B08CD001B2F4908BD004A08BE004D30B7
:101E2600BF004C08C0000A128A1176220A128A15CF
:101E3600831203134D0884000A128A150A200A1217
:101E46008A15003A031D282F292F0E2FC901CA0112
:101E56000800503083120313D5004E08D600003018
:101E6600D700D801D901DF01E0015630C9000030A2
:101E7600CA004F08CB005530CC000A128A15092734
:101E86000A128A158312031358084E07D400540801
:101E96008400831380010800F601F701721C542F99
:101EA600552F5B2F7408F6070318F70A7508F7070E
:101EB60001300310F40DF50DFF3E031D5C2F0130BC
:101EC6000310F30CF20CFF3E031D632F720873041C
:101ED600031D6E2F6F2F512F7708F3007608F2003F
:101EE6000800831203130C1C792F7A2F962F9E302D
:101EF6008F0058308E000130EA070318EB0A0030D5
:101F0600EB0700306B020A3003196A02031C8C2FA0
:101F16008D2F952F0130EC070318ED0A0030ED07E1
:101F2600EA01EB010C1071088A00700E8300FE0EA8
:101F36007E0E090083120313AA01AB01BA2F2908EA
:101F4600F900FA017908F2007A08F3007708F4003C
:101F56007808F5000A128A11D5230A128A1501306B
:101F660083120313AA070318AB0A0030AB072A082B
:101F76007607F9007908840083130008A900290868
:101F8600031DC62FC72FA22F08007208730403195A
:101F9600CD2FCE2FFB2F0130F600DA2F01300310A4
:101FA600F20DF30DFF3E031DD22F0130F607F31F8E
:101FB600DD2FDE2FD12F73087502031DE42F720863
:101FC6007402031CE72FE82FEE2F7208F402730841
:101FD600031CF503F50201300310F30CF20CFF3E6F
:101FE600031DEF2F0130F602031DFA2FFB2FDE2F04
:0A1FF6007508F3007408F2000800FB
:04400E00F12FFF3F50
:00000001FF
