:100000000A128A11D02FFF1B0D2883137F18831724
:100010000008840A0319FF0A080000308A00040857
:10002000840A820700343734383439342F34343476
:10003000353436342A343134323433342D34433485
:1000400030343D342B344534723472346F3472346E
:0800500020342F343034003459
:10005A00073400341A342C343E34F301043073026A
:10006A00031C382839283A289C280130F000730AE2
:10007A0040280310F00DFF3E031D3E287008FF3A8A
:10008A000F398312031386002130F000F00B4B283E
:10009A00831203130608F200F4011030F000740A08
:1000AA0058280310F00DFF3E031D562870087205EC
:1000BA00031D6028612891283430F100F130F000E6
:1000CA00F00B6528F10B65286A28831203130608CA
:1000DA00F2001030F000740A74280310F00DFF3E8D
:1000EA00031D72287008720503197C287D286A2866
:1000FA007308F00002300310F00DFF3E031D802844
:10010A0001307007F1007408710784000A128A111D
:10011A000D200A128A119D280130F4070430740256
:10012A00031C9828992852280130F30733280030F5
:10013A000800FA01F71FA228A328B028F409F50934
:10014A00F609F709F40A0319F50A0319F60A031955
:10015A00F70A0130FA00F31FB328B428BF28F009C0
:10016A00F109F209F309F00A0319F10A0319F20A6B
:10017A000319F30A73087204710470040319C62878
:10018A00C72808290130F900D5280130F8000310E2
:10019A00F00DF10DF20DF30DF80BCC280130F90733
:1001AA00F31FD828D928CA2873087702031DE7281D
:1001BA0072087602031DE72871087502031DE728F5
:1001CA0070087402031CEA28EB28F9287008F40264
:1001DA007108031C710FF5027208031C720FF602F4
:1001EA007308031C730FF70201300310F30CF20CAF
:1001FA00F10CF00CFF3E031DFA280130F902031D31
:10020A0007290829D9287A0803190C290D29182938
:10021A00F409F509F609F709F40A0319F50A0319A5
:10022A00F60A0319F70A7708F3007608F200750848
:10023A00F1007408F0000800F500831203135E0849
:10024A00840083175F1C83130130F30060080739A9
:10025A00013E31290310F30DFF3E031D2F297308B8
:10026A0080047508F30004300310F30CFF3E031DED
:10027A00392973080F390A128A115A240A128A1163
:10028A00831203135E08840083175F1C83130130F3
:10029A00F300600CF400F40C740C0739013E572982
:1002AA000310F30DFF3E031D5529730880041A300D
:1002BA00F300F30B5E290000831203135E08840027
:1002CA0083175F1C83130130F300600CF400F40CF5
:1002DA00740C0739013E73290310F30DFF3E031D09
:1002EA0071297308FF3A800575080F390A128A11B5
:1002FA005A240A128A11831203135E088400831790
:10030A005F1C83130130F300600CF400F40C740CCE
:10031A000739013E92290310F30DFF3E031D902970
:10032A00730880041A30F300F30B99290000831232
:10033A0003135E08840083175F1C83130130F300E4
:10034A00600CF400F40C740C0739013EAE2903105A
:10035A00F30DFF3E031DAC297308FF3A8005080020
:10036A0083120313A101F31FBB29BC29C929F00970
:10037A00F109F209F309F00A0319F10A0319F20A59
:10038A000319F30A0130A100F71FCC29CD29DA2974
:10039A00F409F509F609F709F40A0319F50A031924
:1003AA00F60A0319F70A0130A1060030A500003049
:1003BA00A4000030A3000030A20073087204710484
:1003CA0070040319E929EA29352A0130A000F8291D
:1003DA000130F8000310F00DF10DF20DF30DF80BDA
:1003EA00EF290130A007F31FFB29FC29ED29013071
:1003FA00F8000310A20DA30DA40DA50DF80BFE29FC
:10040A0073087702031D132A72087602031D132A42
:10041A0071087502031D132A70087402031C162A38
:10042A00172A262A7008F4027108031C710FF502B4
:10043A007208031C720FF6027308031C730FF7028B
:10044A00221401300310F30CF20CF10CF00CFF3EF5
:10045A00031D272A0130A002031D342A352AFC294C
:10046A0021080319392A3A2A452AA209A309A40903
:10047A00A509A20A0319A30A0319A40A0319A50ABA
:10048A002508F3002408F2002308F1002208F000EE
:10049A0008005E308400760883138000840A770897
:1004AA008000840A78088000840A79088000840A17
:1004BA007A0880000030831203135F06031D672A3F
:1004CA0005305E06031D6A2A6B2A6F2A83160313F8
:1004DA0085018A2A00305F06031D752A06305E06EA
:1004EA00031D782A792A7D2A8316031386018A2A0C
:1004FA0000305F06031D832A07305E06031D862A25
:10050A00872AFA2A8316031387013430FC00F13054
:10051A00FB00FB0B8E2AFC0B8E2A932A03300A124D
:10052A008A15AB270A128A110D30FC00FB30FB003A
:10053A00FB0B9D2AFC0B9D2AA22A03300A128A155C
:10054A00AB270A128A112A30FC008D30FB00FB0B04
:10055A00AC2AFC0BAC2AB12A03300A128A15AB2743
:10056A000A128A1102300A128A15AB270A128A1154
:10057A0002300A128A15AB270A128A1108300A12A7
:10058A008A15AB270A128A1100300A128A15AB277C
:10059A000A128A1106300A128A15AB270A128A1120
:1005AA000830FD007D157D08FB0004300310FB0CAC
:1005BA00FF3E031DDB2A7B080F390A128A15AB2777
:1005CA000A128A117D080F390A128A15AB270A12F4
:1005DA008A1100300A128A15AB270A128A110130D1
:1005EA000A128A15AB270A128A110800831203130A
:1005FA00B901B701A91F022B032B102B0130B70039
:10060A00A609A709A809A909A60A0319A70A031985
:10061A00A80A0319A90A2908280427042604031D7D
:10062A00172B182B622B2A08840030308313800082
:10063A002A0A84008001A92B8312031339082B3E4E
:10064A0084000030F3000030F2000030F1000A307C
:10065A00F0002908F7002808F6002708F500260800
:10066A00F4000A128A119E200A128A117008303E7A
:10067A0083138000013083120313B9070030F3009B
:10068A000030F2000030F1000A30F0002908F700CB
:10069A002808F6002708F5002608F4000A128A112D
:1006AA00B5210A128A11730883120313A90072086A
:1006BA00A8007108A7007008A600A91B752B2908B5
:1006CA00031D742B2808031D742B2708031D742B84
:1006DA0001302602031D712B0318742B752B212B55
:1006EA0083120313370803197B2B7C2B842B3908BD
:1006FA002B3E84002D30831380000130B907B801E6
:10070A009C2B2B30FB003808FB0239087B07FC00C6
:10071A007C08FF3E840083130008FF0038082A077C
:10072A00FD007D0884007F0880000130B807390881
:10073A003802031CA12BA22B862B39082A07FB009F
:10074A007B0884008313800108000030831203139E
:10075A00B2000030B1000030B0000030AF00AE018E
:10076A00B82B0130A007200884002030831300062C
:10077A000319C02BC12BB62B20088400F7300007C1
:10078A00A40005302402031CCB2BCC2BB62B20084B
:10079A0084002D300006031DD32BD42BD92B013016
:1007AA00AE000130A007302C200884002B30000650
:1007BA00031DE02BE12B302CD62B200884000008E7
:1007CA00D03EA400FF3003180030A5002408A6007C
:1007DA002508A7000030A71BFF30A800A90032088F
:1007EA00F3003108F2003008F1002F08F000003061
:1007FA00F7000030F6000030F5000A30F4000A1263
:10080A008A1565270A128A11700883120313AA002F
:10081A007108AB007208AC007308AD002608AA0282
:10082A002708031C270F1A2C1B2CAB022808031CB1
:10083A00280F202C212CAC022908031C290F262C56
:10084A00272CAD022D08B2002C08B1002B08B000ED
:10085A002A08AF00D62B20088400D0308313000763
:10086A00A4000A302402031C3B2C3C2CE22B2E0849
:10087A00031D402C412C512C2F09A0003009A10046
:10088A003109A2003209A300A00A0319A10A031917
:10089A00A20A0319A30A592C3208A3003108A2009C
:1008AA003008A1002F08A0000800F200721C5E2C7C
:1008BA005F2C742C831203135E08840083175F1C59
:1008CA0083130130F00061080739013E6E2C0310D2
:1008DA00F00DFF3E031D6C2C70088004892C8312D6
:1008EA0003135E08840083175F1C83130130F00032
:1008FA0061080739013E832C0310F00DFF3E031DEA
:10090A00812C7008FF3A8005F21C8C2C8D2CA32CAC
:10091A005E08840083175F1C83130130F000610CAA
:10092A00F100F10C710C0739013E9D2C0310F00DFA
:10093A00FF3E031D9B2C70088004B92C5E088400BE
:10094A0083175F1C83130130F000610CF100F10C76
:10095A00710C0739013EB32C0310F00DFF3E031D45
:10096A00B12C7008FF3A8005721DBC2CBD2CD02C0E
:10097A005E08840083175F1C83130130F00062084D
:10098A000739013ECA2C0310F00DFF3E031DC82C87
:10099A0070088004E32C5E08840083175F1C8313AD
:1009AA000130F00062080739013EDD2C0310F00D1A
:1009BA00FF3E031DDB2C7008FF3A8005F21DE62C72
:1009CA00E72CFD2C5E08840083175F1C831301301B
:1009DA00F000620CF100F10C710C0739013EF72CA2
:1009EA000310F00DFF3E031DF52C70088004132D33
:1009FA005E08840083175F1C83130130F000620CC9
:100A0A00F100F10C710C0739013E0D2D0310F00DA8
:100A1A00FF3E031D0B2D7008FF3A80050800831660
:100A2A00031788018901F0308316031386000F30FB
:100A3A008312031386007F3083160313810587010F
:100A4A00831203138701A030840063088313800094
:100A5A00840A64088000840A65088000840A66089B
:100A6A008000840A670880007630840083160313A6
:100A7A0020088000840A21088000840A2208800055
:100A8A00840A23088000840A240880000A128A1132
:100A9A004E220A128A1108300A128A15AB270A1244
:100AAA008A1100300A128A15AB270A128A11A53058
:100ABA0084000930FF0083138001840AFF0B602D34
:100ACA0083160313BB010030B5000030B4000030B8
:100ADA00B3000030B200BA010A128A1132200A1297
:100AEA008A1183160313BC003C08031D7D2D7E2D3D
:100AFA007F2D712D43303C06031D842D852DB42D89
:100B0A000030B5000030B4000030B3000030B2004D
:100B1A00BA01BB01A50100300A128A15AB270A12D5
:100B2A008A1101300A128A15AB270A128A11063075
:100B3A0083120313D2002F30D100D10BA22DD20B76
:100B4A00A22DA72D08300A128A15AB270A128A117C
:100B5A0000300A128A15AB270A128A11712D2B301E
:100B6A003C060319B92DBA2DCC2D2D303C0603199C
:100B7A00BF2DC02DCC2D2A303C060319C52DC62DFC
:100B8A00CC2D2F303C06031DCB2DCC2DF82DA530B6
:100B9A0083120313A0000A128A11AA230A128A11C5
:100BAA0083120313230883160313B5008312031356
:100BBA00220883160313B400831203132108831631
:100BCA000313B30083120313200883160313B2001E
:100BDA003C08BA00BB01A5013C080A128A1121216E
:100BEA000A128A11712D3D303C06031DFD2DFE2D82
:100BFA00B42F3A080319022E032E712D3B0803194C
:100C0A00072E082E712DA53083120313A0000A1295
:100C1A008A11AA230A128A1183120313230883163C
:100C2A000313B90083120313220883160313B800AF
:100C3A0083120313210883160313B70083120313C5
:100C4A00200883160313B6000030B1000030B0004C
:100C5A000030AF000030AE002B303A06031D362EAE
:100C6A00372E822E3208360783120313D100003042
:100C7A000318013083160313330783120313D301B6
:100C8A000318D30A83160313370783120313D200F8
:100C9A000318D30A83160313340883120313530762
:100CAA00D4010318D40A83160313380783120313D3
:100CBA00D3000318D40A83160313350883120313C7
:100CCA00540783160313390783120313D4005408F5
:100CDA0083160313B10083120313530883160313F5
:100CEA00B00083120313520883160313AF00831252
:100CFA000313510883160313AE002D303A06031D61
:100D0A00872E882EDC2E320883120313D100831615
:100D1A000313330883120313D20083160313340810
:100D2A0083120313D30083160313350883120313A4
:100D3A00D40083160313360883120313D1028316D1
:100D4A0003133708031C370FAB2EAE2E831203137F
:100D5A00D202831603133808031C380FB52EB82E97
:100D6A0083120313D302831603133908031C390FA2
:100D7A00BF2EC22E83120313D402831603138312C7
:100D8A000313540883160313B10083120313530881
:100D9A0083160313B0008312031352088316031336
:100DAA00AF0083120313510883160313AE002A30CF
:100DBA003A06031DE12EE22E012F3508F30034080E
:100DCA00F2003308F1003208F0003908F700380859
:100DDA00F6003708F5003608F4000A128A15652766
:100DEA000A128A11730883160313B1007208B0003D
:100DFA007108AF007008AE002F303A06031D062FA7
:100E0A00072F692F390838043704360403190E2FBF
:100E1A000F2F2F2F3908F3003808F2003708F10096
:100E2A003608F0003508F7003408F6003308F500F4
:100E3A003208F4000A128A11B5210A128A117308BB
:100E4A0083160313B1007208B0007108AF0070086E
:100E5A00AE00692F00300A128A15AB270A128A11CE
:100E6A0001300A128A15AB270A128A110630831238
:100E7A000313D2002F30D100D10B412FD20B412FB7
:100E8A00462F08300A128A15AB270A128A11003037
:100E9A000A128A15AB270A128A111130F60080301D
:100EAA00F7000A128A1523270A128A1100308316BC
:100EBA000313B5000030B4000030B3000030B200B4
:100ECA00BA01BB01A501712D310883120313BD00BC
:100EDA0083160313300883120313BC00831603130B
:100EEA002F0883120313BB00831603132E088312E1
:100EFA000313BA000A128A15E5260A128A11831602
:100F0A000313310883120313A9008316031330084D
:100F1A0083120313A800831603132F0883120313E3
:100F2A00A700831603132E0883120313A600A53005
:100F3A00AA000A128A11FB220A128A1183160313C3
:100F4A00BB01A92F0130BB073B08A53E84008313D0
:100F5A000008031DB12FB22FA72FBA01712D083037
:100F6A003B020318B92FBA2F712D3B08A53E840006
:100F7A003C08831380000130BB073B08A53E840070
:100F8A0080013C080A128A1121210A128A11712D44
:100F9A000A128A1100280A128A112D200A128A11AD
:100FAA00E3000A128A112E200A128A11E4000A1298
:100FBA008A112F200A128A11E5000A128A1130209A
:100FCA000A128A11E6000A128A1131200A128A11BB
:100FDA00E700D501D601D701D801D901DA01DB0131
:100FEA00DC01DD01DE01DF01E001E101E201830153
:060FFA000A128A11142DF9
:101DCA0000300A128A15AB270A128A1501300A1244
:101DDA008A15AB270A128A15063083120313BF002D
:101DEA002F30BE00BE0BF72EBF0BF72EFC2E08308D
:101DFA000A128A15AB270A128A1500300A128A15A6
:101E0A00AB270A128A15831203133D08A9003C085E
:101E1A00A8003B08A7003A08A6004030AA000A1208
:101E2A008A11FB220A128A154030F6000030F700A8
:101E3A000A128A1523270A128A150800FB01FC01D7
:101E4A00482F7B087607F9007708F8000318F80A84
:101E5A00FB1F302FF8037808FA007A08831203135D
:101E6A00FF00790884000A128A1103200A128A15CF
:101E7A000A128A1121210A128A150130FB07031856
:101E8A00FC0A0030FC077B087607F9007708F8009F
:101E9A000318F80AFB1F522FF8037808FA007A0889
:101EAA0083120313FF00790884000A128A1103209F
:101EBA000A128A15003A031D632F642F262F080081
:101ECA000030FC000030FB000030FA000030F9005E
:101EDA00701C702F712F882F7408F9077508031169
:101EEA000318013E03197A2FFA077608031103181B
:101EFA00013E0319812FFB07770803110318013EDE
:101F0A000319882FFC070130F8000310F40DF50DB2
:101F1A00F60DF70DF80B8A2F01300310F30CF20CB3
:101F2A00F10CF00CFF3E031D922F7308720471042A
:101F3A007004031DA12FA22F6D2F7C08F3007B08CC
:101F4A00F2007A08F1007908F0000800F50083121F
:101F5A0003135E08840083175F1C83130130F300A8
:101F6A0060080739013EBB2F0310F30DFF3E031D26
:101F7A00B92F7308FF3A800575080A128A115A2484
:101F8A000A128A15831203135E08840083175F1CE2
:101F9A0083130130F300600CF400F40C740C07395D
:101FAA00013ED92F0310F30DFF3E031DD72F7308EF
:101FBA0080040B30F4006230F300F30BE22FF40BD1
:101FCA00E22F0000831203135E08840083175F1C4C
:101FDA0083130130F300600CF400F40C740C07391D
:101FEA00013EF92F0310F30DFF3E031DF72F73086F
:061FFA00FF3A800508001B
:04400E00F22FFF3F4F
:00000001FF
