:060000000A128A110C280F
:10000800FE00030EF0000A08F1000A128A11F12B13
:100018000A128A110F280A128A1107240A128A1151
:10002800B2000A128A1108240A128A11B3000A12AD
:100038008A1109240A128A11B4000A128A110A24A0
:100048000A128A11B5000A128A110B240A128A119F
:10005800B6000A128A110C240A128A11FB00AD019B
:10006800AE01AF01B001B10183010A128A113C2827
:1000780083160317880189018316031388018701F2
:100088000130860083120313880187018316031346
:1000980001087F39810001138B100B168B1728304C
:1000A800840083120313320883138000840A330800
:1000B8008000840A34088000840A35088000840A95
:1000C800360880002030840028088000840A290827
:1000D8008000840A2A088000840A2B088000840A89
:1000E8002C0880000A128A11B5210A128A110930D7
:1000F800F80000300A128A11F3220A128A1101301C
:10010800F80001300A128A11F3220A128A1100300B
:100118000A128A1149230A128A1101300A128A1115
:1001280049230A128A1108300A128A1149230A122D
:100138008A1100300A128A1149230A128A117B088F
:100148000319A728A828D0281E30F8000A128A11F7
:10015800CD230A128A110C300A128A1149230A1275
:100168008A1100300A128A1149230A128A110030B2
:100178000A128A1161220A128A11043083120313A7
:10018800A7000C30A6003330A500A50BC928A60B84
:10019800C928A70BC928E9281130F8000A128A11C2
:1001A800CD230A128A110C300A128A1149230A1225
:1001B8008A1100300A128A1149230A128A11013061
:1001C8000A128A1161220A128A110B308312031350
:1001D800A7002630A6005D30A500A50BF128A60BC8
:1001E800F128A70BF1288B280A128A110C28F40091
:1001F800741CFF2800291529831203132D08840075
:1002080083172E1C83130130F20030080739013E92
:100218000F290310F20DFF3E031D0D2972088004FB
:100228002A29831203132D08840083172E1C831395
:100238000130F20030080739013E24290310F20D7D
:10024800FF3E031D22297208FF3A8005F41C2D2960
:100258002E2944292D08840083172E1C831301306E
:10026800F200300CF300F30C730C0739013E3E2901
:100278000310F20DFF3E031D3C29720880045A2921
:100288002D08840083172E1C83130130F200300CD4
:10029800F300F30C730C0739013E54290310F20DD7
:1002A800FF3E031D52297208FF3A8005741D5D291F
:1002B8005E2971292D08840083172E1C83130130B1
:1002C800F20031080739013E6B290310F20DFF3E99
:1002D800031D69297208800484292D088400831766
:1002E8002E1C83130130F20031080739013E7E29A4
:1002F8000310F20DFF3E031D7C297208FF3A8005AA
:10030800F41D872988299E292D08840083172E1C0F
:1003180083130130F200310CF300F30C730C07392E
:10032800013E98290310F20DFF3E031D962972081D
:100338008004B4292D08840083172E1C83130130F0
:10034800F200310CF300F30C730C0739013EAE29AF
:100358000310F20DFF3E031DAC297208FF3A800519
:1003680008002D30840083120313200883138000B3
:10037800840A21088000840A22088000840A23084D
:100388008000840A2408800000302E06031DCE2930
:1003980005302D06031DD129D229D629831603132A
:1003A8008501F12900302E06031DDC2906302D06B3
:1003B800031DDF29E029E429831603138601F129A7
:1003C80000302E06031DEA2907302D06031DED29EE
:1003D800EE29602A8316031387011A30F900F830D2
:1003E800F800F80BF529F90BF529000003300A127B
:1003F8008A1149230A128A110730F9007D30F80062
:10040800F80B042AF90B042A03300A128A1149232B
:100418000A128A111530F900C630F800F80B122AB2
:10042800F90B122A000003300A128A1149230A1212
:100438008A1102300A128A1149230A128A110230DB
:100448000A128A1149230A128A1108300A128A11DB
:1004580049230A128A1100300A128A1149230A1202
:100468008A1106300A128A1149230A128A110830A1
:10047800FA007A157A08F80004300310F80CFF3EE9
:10048800031D412A78080F390A128A1149230A12D2
:100498008A117A080F390A128A1149230A128A1115
:1004A80000300A128A1149230A128A1101300A12ED
:1004B8008A1149230A128A110800F70083120313CC
:1004C8002D08840083172E1C83130130F5002F0894
:1004D8000739013E712A0310F50DFF3E031D6F2AEF
:1004E800750880047708F50004300310F50CFF3E0A
:1004F800031D792A75080F390A128A11FB200A127E
:100508008A11831203132D08840083172E1C83136A
:100518000130F5002F0CF600F60C760C0739013E79
:10052800972A0310F50DFF3E031D952A75088004D0
:100538000D30F500F50B9E2A831203132D08840055
:1005480083172E1C83130130F5002F0CF600F60CD0
:10055800760C0739013EB22A0310F50DFF3E031D44
:10056800B02A7508FF3A800577080F390A128A11F0
:10057800FB200A128A11831203132D0884008317A3
:100588002E1C83130130F5002F0CF600F60C760CA8
:100598000739013ED12A0310F50DFF3E031DCF2A6E
:1005A800750880040D30F500F50BD82A8312031363
:1005B8002D08840083172E1C83130130F5002F0C9F
:1005C800F600F60C760C0739013EEC2A0310F50DFF
:1005D800FF3E031DEA2A7508FF3A800508008312CA
:1005E8000313A0002008F90002300310F90DFF3EA4
:1005F800031DF92A0310790D403EFA000430031058
:10060800FA0CFF3E031D032B7A080F390A128A11D0
:1006180049230A128A11831203132008F9000230B1
:100628000310F90DFF3E031D142B0310790D403EF6
:100638000F390A128A1149230A128A1183120313E5
:10064800A1012108780784000A128A119E230A1240
:100658008A110A128A1161220A128A110130831240
:100668000313A10708302102031C3B2B3C2B252B2D
:1006780008300A128A1149230A128A1100300A1214
:100688008A1149230A128A110800F70083120313FA
:100698002D08840083172E1C83130130F5002F08C2
:1006A8000739013E592B0310F50DFF3E031D572B4B
:1006B8007508FF3A800577080A128A11FB200A128A
:1006C8008A11831203132D08840083172E1C8313A9
:1006D8000130F5002F0CF600F60C760C0739013EB8
:1006E800772B0310F50DFF3E031D752B750880044D
:1006F8000630F6003030F500F50B802BF60B802B1A
:100708000000831203132D08840083172E1C831303
:100718000130F5002F0CF600F60C760C0739013E77
:10072800972B0310F50DFF3E031D952B7508FF3A17
:100738008005080003308A000408840A8207003410
:1007480004340E341F341134113411341F3400347E
:1007580000340A340A34003411340E3400340034BE
:100768004134643469346F34733420346D347534EF
:100778006E3464346F342134003448346F346C344C
:10078800613420346D3475346E3464346F342134FC
:100798000034F901FA01E32B7908780784000A127A
:1007A8008A119E230A128A110A128A1161220A12D8
:1007B8008A110130F9070318FA0A0030FA07790894
:1007C800780784000A128A119E230A128A11003AB5
:1007D800031DEF2BF02BD02B08008B1CF42BF52BD3
:1007E800002C8B137B080319FA2BFC2B0130FD2BF3
:1007F8000030FB008B178B1071088A00700E830085
:10080800FE0E7E0E0900073400341A342C343E34B0
:020818000134A9
:04400E00F12FFF3F50
:00000001FF
