:060000000A128A110C280F
:10000800FE00030EF0000A08F1000A128A115429B2
:100018000A128A110F28FB0183120313B601B701D4
:1000280083010A128A111828831603138801831280
:10003800031388010A128A11A7210A128A110A12C7
:100048008A11B5210A128A1100300A128A118521F3
:100058000A128A11730883120313B3007208B200DC
:1000680001300A128A1185210A128A117308831233
:100078000313B5007208B4008B130030A7000030DA
:10008800A6000330A500FF30A4003208F2003308B0
:10009800F300F401F5010030F9000030F8000030F9
:1000A800F7001430F6000A128A1108210A128A1180
:1000B800750883120313AB007408AA007308A9001B
:1000C8007208A8000A128A11A2200A128A11831241
:1000D80003132408B7000030A7000030A60003303F
:1000E800A500FF30A4003408F2003508F300F4013D
:1000F800F5010030F9000030F8000030F700143046
:10010800F6000A128A1108210A128A117508831248
:100118000313AB007408AA007308A9007208A800AA
:100128000A128A11A2200A128A11831203132408C0
:10013800B6008B1728280A128A110C28003083125F
:100148000313B0000030AF000030AE000030AD0047
:1001580027082604250424040319B328B428FF28F3
:100168000130B100C2280130AC000310A40DA50D68
:10017800A60DA70DAC0BB9280130B107A71FC528DC
:10018800C628B7280130AC000310AD0DAE0DAF0D79
:10019800B00DAC0BC82827082B02031DDD28260844
:1001A8002A02031DDD2825082902031DDD2824084D
:1001B8002802031CE028E128F0282408A8022508C2
:1001C800031C250FA9022608031C260FAA022708CC
:1001D800031C270FAB022D1401300310A70CA60C2B
:1001E800A50CA40CFF3E031DF1280130B102031D2C
:1001F800FE28FF28C6283008A7002F08A6002E08CA
:10020800A5002D08A4000800003083120313A300E2
:100218000030A2000030A1000030A000721C152997
:1002280016292F29760883120313A00777080311CC
:100238000318013E03192129A1077808031103189F
:10024800013E03192829A207790803110318013E62
:1002580003192F29A3070130FA000310F60DF70D33
:10026800F80DF90DFA0B312901300310F50CF40CD7
:10027800F30CF20CFF3E031D39297508740473044E
:100288007204031D482949291229831203132308DC
:10029800F5002208F4002108F3002008F200080005
:1002A8000B1D572958297E298312031337087B020F
:1002B800031C5F2963298312031308146629831218
:1002C8000313081036087B02031C6B296F2983125D
:1002D8000313881472298312031388100130FB0753
:1002E80014307B02031C79297A297B29FB01F03021
:1002F80081000B1171088A00700E8300FE0E7E0EBD
:100308000900F5008330831203139F057508F40074
:1003180001300310F40DFF3E031D8D290310740DE9
:100328009F040330F400F40B9729831203139F14DE
:100338009F189F29A0299C291E08F30083160313E0
:100348001E08F2000800033083160317880089018D
:100358000130831203139F008030831603139F001C
:1003680008000130831603138100F0308312031351
:0803780081008B168B170800B1
:04400E00F22FFF3F4F
:00000001FF
