:060000000A128A110C280F
:10000800FE00030EF2000A08F3000A128A112429DE
:100018000A128A110F28F701F80183120313BD0190
:1000280083010A128A117E28003083120313B70055
:100038000030B6000030B5000030B4002F082E04A0
:100048002D042C04031929282A2875280130B80002
:1000580038280130F5000310AC0DAD0DAE0DAF0D15
:10006800F50B2F280130B807AF1F3B283C282D2857
:100078000130F5000310B40DB50DB60DB70DF50B35
:100088003E282F083302031D53282E083202031D71
:1000980053282D083102031D53282C083002031C55
:1000A8005628572866282C08B0022D08031C2D0F47
:1000B800B1022E08031C2E0FB2022F08031C2F0FAB
:1000C800B302341401300310AF0CAE0CAD0CAC0C01
:1000D800FF3E031D67280130B802031D74287528E8
:1000E8003C283708AF003608AE003508AD003408A4
:1000F800AC000800831603138801831203138801D8
:10010800FF308316031385000A128A116A210A1226
:100118008A110A128A1178210A128A110A128A117E
:1001280058210A128A11750883120313BC00740837
:10013800BB008B130030AF000030AE000330AD00C1
:10014800FF30AC003B08A0003C08A100A201A301BD
:100158000030A7000030A6000030A5001E30A40023
:100168000A128A11DC200A128A1183120313230847
:10017800B3002208B2002108B1002008B0000A121A
:100188008A1118200A128A11831203132C08BD0041
:100198008B171A3083120313BA00F730B900B90B62
:1001A800D328BA0BD328D82892280A128A110C28E7
:1001B800003083120313AB000030AA000030A900FE
:1001C8000030A800201CE928EA2801292408A807EB
:1001D800250803110318013E0319F328A907260867
:1001E80003110318013E0319FA28AA072708031167
:1001F8000318013E03190129AB070130F40003106D
:10020800A40DA50DA60DA70DF40B032901300310AD
:10021800A30CA20CA10CA00CFF3E031D0B29230864
:10022800220421042004031D1A291B29E6282B086F
:10023800A3002A08A2002908A1002808A000080095
:100248000B1D272928295129831203133D08F00083
:10025800F10171087802031D332970087702031C25
:1002680036293A298312031308143D2983120313EC
:1002780008100130F7070318F80A0030F8070030B3
:100288007802C83003197702031C4B294C294E29E0
:10029800F701F801E73081000B1173088A00720E2C
:1002A8008300FE0E7E0E09000D30F600F60B5A296B
:1002B800831203139F149F18622963295F291E085C
:1002C800F500831603131E08F40008000130831696
:1002D8000317880089018130831203139F0080303F
:1002E800831603139F00080002308316031381004E
:0E02F800E7308312031381008B168B1708006A
:04400E00F22FFF3F4F
:00000001FF
