:060000000A128A110C280F
:10000800FE00030EF4000A08F5000A128A111D28E2
:100018000A128A110F280A128A1199200A128A11C3
:10002800F600F001F101F201F30183010A128A11CD
:100038006D280B1D20282128662872087302031CCE
:1000480026282A288312031308142D288312031341
:1000580008100130F307C8307302031C3428352810
:100068003628F3010130F0070318F10A0030F107D0
:1000780000307102FA3003197002031C4428452825
:1000880063287608031949284A284D280130F207C1
:100098004F280130F20219307202031C54285528E7
:1000A80059281930F200F60161287208031D5D28ED
:1000B8005E286128F2010130F600F001F101E73015
:1000C80081000B1175088A00740E8300FE0E7E0EE7
:1000D80009008316031388018312031388010A1287
:1000E8008A1181200A128A110A128A118E200A1294
:1000F8008A117D280A128A110C28013083160317E9
:1001080088008130831203139F0080308316031305
:100118009F0008000230831603138100E730831222
:0C012800031381008B168B1708000134B4
:04400E00F22FFF3F4F
:00000001FF
